{
	"contracts/newContract.sol": {
		"MyContract": {
			"abi": [
				{
					"inputs": [
						{
							"internalType": "string",
							"name": "_message",
							"type": "string"
						}
					],
					"stateMutability": "nonpayable",
					"type": "constructor"
				},
				{
					"inputs": [],
					"name": "counter",
					"outputs": [
						{
							"internalType": "uint256",
							"name": "",
							"type": "uint256"
						}
					],
					"stateMutability": "view",
					"type": "function"
				},
				{
					"inputs": [],
					"name": "incrementCounter",
					"outputs": [],
					"stateMutability": "nonpayable",
					"type": "function"
				},
				{
					"inputs": [],
					"name": "message",
					"outputs": [
						{
							"internalType": "string",
							"name": "",
							"type": "string"
						}
					],
					"stateMutability": "view",
					"type": "function"
				},
				{
					"inputs": [
						{
							"internalType": "string",
							"name": "_newMessage",
							"type": "string"
						}
					],
					"name": "setMessage",
					"outputs": [],
					"stateMutability": "nonpayable",
					"type": "function"
				}
			],
			"devdoc": {
				"kind": "dev",
				"methods": {},
				"version": 1
			},
			"evm": {
				"assembly": "    /* \"contracts/newContract.sol\":57:398  contract MyContract {... */\n  mstore(0x40, 0x80)\n    /* \"contracts/newContract.sol\":136:228  constructor(string memory _message) {... */\n  callvalue\n  dup1\n  iszero\n  tag_1\n  jumpi\n  revert(0x00, 0x00)\ntag_1:\n  pop\n  mload(0x40)\n  sub(codesize, bytecodeSize)\n  dup1\n  bytecodeSize\n  dup4\n  codecopy\n  dup2\n  dup2\n  add\n  0x40\n  mstore\n  dup2\n  add\n  swap1\n  tag_2\n  swap2\n  swap1\n  tag_3\n  jump\t// in\ntag_2:\n    /* \"contracts/newContract.sol\":192:200  _message */\n  dup1\n    /* \"contracts/newContract.sol\":182:189  message */\n  0x00\n    /* \"contracts/newContract.sol\":182:200  message = _message */\n  swap1\n  dup2\n  tag_6\n  swap2\n  swap1\n  tag_7\n  jump\t// in\ntag_6:\n  pop\n    /* \"contracts/newContract.sol\":220:221  0 */\n  0x00\n    /* \"contracts/newContract.sol\":210:217  counter */\n  0x01\n    /* \"contracts/newContract.sol\":210:221  counter = 0 */\n  dup2\n  swap1\n  sstore\n  pop\n    /* \"contracts/newContract.sol\":136:228  constructor(string memory _message) {... */\n  pop\n    /* \"contracts/newContract.sol\":57:398  contract MyContract {... */\n  jump(tag_8)\n    /* \"#utility.yul\":7:82   */\ntag_9:\n    /* \"#utility.yul\":40:46   */\n  0x00\n    /* \"#utility.yul\":73:75   */\n  0x40\n    /* \"#utility.yul\":67:76   */\n  mload\n    /* \"#utility.yul\":57:76   */\n  swap1\n  pop\n    /* \"#utility.yul\":7:82   */\n  swap1\n  jump\t// out\n    /* \"#utility.yul\":88:205   */\ntag_10:\n    /* \"#utility.yul\":197:198   */\n  0x00\n    /* \"#utility.yul\":194:195   */\n  0x00\n    /* \"#utility.yul\":187:199   */\n  revert\n    /* \"#utility.yul\":211:328   */\ntag_11:\n    /* \"#utility.yul\":320:321   */\n  0x00\n    /* \"#utility.yul\":317:318   */\n  0x00\n    /* \"#utility.yul\":310:322   */\n  revert\n    /* \"#utility.yul\":334:451   */\ntag_12:\n    /* \"#utility.yul\":443:444   */\n  0x00\n    /* \"#utility.yul\":440:441   */\n  0x00\n    /* \"#utility.yul\":433:445   */\n  revert\n    /* \"#utility.yul\":457:574   */\ntag_13:\n    /* \"#utility.yul\":566:567   */\n  0x00\n    /* \"#utility.yul\":563:564   */\n  0x00\n    /* \"#utility.yul\":556:568   */\n  revert\n    /* \"#utility.yul\":580:682   */\ntag_14:\n    /* \"#utility.yul\":621:627   */\n  0x00\n    /* \"#utility.yul\":672:674   */\n  0x1f\n    /* \"#utility.yul\":668:675   */\n  not\n    /* \"#utility.yul\":663:665   */\n  0x1f\n    /* \"#utility.yul\":656:661   */\n  dup4\n    /* \"#utility.yul\":652:666   */\n  add\n    /* \"#utility.yul\":648:676   */\n  and\n    /* \"#utility.yul\":638:676   */\n  swap1\n  pop\n    /* \"#utility.yul\":580:682   */\n  swap2\n  swap1\n  pop\n  jump\t// out\n    /* \"#utility.yul\":688:868   */\ntag_15:\n    /* \"#utility.yul\":736:813   */\n  0x4e487b7100000000000000000000000000000000000000000000000000000000\n    /* \"#utility.yul\":733:734   */\n  0x00\n    /* \"#utility.yul\":726:814   */\n  mstore\n    /* \"#utility.yul\":833:837   */\n  0x41\n    /* \"#utility.yul\":830:831   */\n  0x04\n    /* \"#utility.yul\":823:838   */\n  mstore\n    /* \"#utility.yul\":857:861   */\n  0x24\n    /* \"#utility.yul\":854:855   */\n  0x00\n    /* \"#utility.yul\":847:862   */\n  revert\n    /* \"#utility.yul\":874:1155   */\ntag_16:\n    /* \"#utility.yul\":957:984   */\n  tag_50\n    /* \"#utility.yul\":979:983   */\n  dup3\n    /* \"#utility.yul\":957:984   */\n  tag_14\n  jump\t// in\ntag_50:\n    /* \"#utility.yul\":949:955   */\n  dup2\n    /* \"#utility.yul\":945:985   */\n  add\n    /* \"#utility.yul\":1087:1093   */\n  dup2\n    /* \"#utility.yul\":1075:1085   */\n  dup2\n    /* \"#utility.yul\":1072:1094   */\n  lt\n    /* \"#utility.yul\":1051:1069   */\n  0xffffffffffffffff\n    /* \"#utility.yul\":1039:1049   */\n  dup3\n    /* \"#utility.yul\":1036:1070   */\n  gt\n    /* \"#utility.yul\":1033:1095   */\n  or\n    /* \"#utility.yul\":1030:1118   */\n  iszero\n  tag_51\n  jumpi\n    /* \"#utility.yul\":1098:1116   */\n  tag_52\n  tag_15\n  jump\t// in\ntag_52:\n    /* \"#utility.yul\":1030:1118   */\ntag_51:\n    /* \"#utility.yul\":1138:1148   */\n  dup1\n    /* \"#utility.yul\":1134:1136   */\n  0x40\n    /* \"#utility.yul\":1127:1149   */\n  mstore\n    /* \"#utility.yul\":917:1155   */\n  pop\n    /* \"#utility.yul\":874:1155   */\n  pop\n  pop\n  jump\t// out\n    /* \"#utility.yul\":1161:1290   */\ntag_17:\n    /* \"#utility.yul\":1195:1201   */\n  0x00\n    /* \"#utility.yul\":1222:1242   */\n  tag_54\n  tag_9\n  jump\t// in\ntag_54:\n    /* \"#utility.yul\":1212:1242   */\n  swap1\n  pop\n    /* \"#utility.yul\":1251:1284   */\n  tag_55\n    /* \"#utility.yul\":1279:1283   */\n  dup3\n    /* \"#utility.yul\":1271:1277   */\n  dup3\n    /* \"#utility.yul\":1251:1284   */\n  tag_16\n  jump\t// in\ntag_55:\n    /* \"#utility.yul\":1161:1290   */\n  swap2\n  swap1\n  pop\n  jump\t// out\n    /* \"#utility.yul\":1296:1604   */\ntag_18:\n    /* \"#utility.yul\":1358:1362   */\n  0x00\n    /* \"#utility.yul\":1448:1466   */\n  0xffffffffffffffff\n    /* \"#utility.yul\":1440:1446   */\n  dup3\n    /* \"#utility.yul\":1437:1467   */\n  gt\n    /* \"#utility.yul\":1434:1490   */\n  iszero\n  tag_57\n  jumpi\n    /* \"#utility.yul\":1470:1488   */\n  tag_58\n  tag_15\n  jump\t// in\ntag_58:\n    /* \"#utility.yul\":1434:1490   */\ntag_57:\n    /* \"#utility.yul\":1508:1537   */\n  tag_59\n    /* \"#utility.yul\":1530:1536   */\n  dup3\n    /* \"#utility.yul\":1508:1537   */\n  tag_14\n  jump\t// in\ntag_59:\n    /* \"#utility.yul\":1500:1537   */\n  swap1\n  pop\n    /* \"#utility.yul\":1592:1596   */\n  0x20\n    /* \"#utility.yul\":1586:1590   */\n  dup2\n    /* \"#utility.yul\":1582:1597   */\n  add\n    /* \"#utility.yul\":1574:1597   */\n  swap1\n  pop\n    /* \"#utility.yul\":1296:1604   */\n  swap2\n  swap1\n  pop\n  jump\t// out\n    /* \"#utility.yul\":1610:1749   */\ntag_19:\n    /* \"#utility.yul\":1699:1705   */\n  dup3\n    /* \"#utility.yul\":1694:1697   */\n  dup2\n    /* \"#utility.yul\":1689:1692   */\n  dup4\n    /* \"#utility.yul\":1683:1706   */\n  mcopy\n    /* \"#utility.yul\":1740:1741   */\n  0x00\n    /* \"#utility.yul\":1731:1737   */\n  dup4\n    /* \"#utility.yul\":1726:1729   */\n  dup4\n    /* \"#utility.yul\":1722:1738   */\n  add\n    /* \"#utility.yul\":1715:1742   */\n  mstore\n    /* \"#utility.yul\":1610:1749   */\n  pop\n  pop\n  pop\n  jump\t// out\n    /* \"#utility.yul\":1755:2189   */\ntag_20:\n    /* \"#utility.yul\":1844:1849   */\n  0x00\n    /* \"#utility.yul\":1869:1935   */\n  tag_62\n    /* \"#utility.yul\":1885:1934   */\n  tag_63\n    /* \"#utility.yul\":1927:1933   */\n  dup5\n    /* \"#utility.yul\":1885:1934   */\n  tag_18\n  jump\t// in\ntag_63:\n    /* \"#utility.yul\":1869:1935   */\n  tag_17\n  jump\t// in\ntag_62:\n    /* \"#utility.yul\":1860:1935   */\n  swap1\n  pop\n    /* \"#utility.yul\":1958:1964   */\n  dup3\n    /* \"#utility.yul\":1951:1956   */\n  dup2\n    /* \"#utility.yul\":1944:1965   */\n  mstore\n    /* \"#utility.yul\":1996:2000   */\n  0x20\n    /* \"#utility.yul\":1989:1994   */\n  dup2\n    /* \"#utility.yul\":1985:2001   */\n  add\n    /* \"#utility.yul\":2034:2037   */\n  dup5\n    /* \"#utility.yul\":2025:2031   */\n  dup5\n    /* \"#utility.yul\":2020:2023   */\n  dup5\n    /* \"#utility.yul\":2016:2032   */\n  add\n    /* \"#utility.yul\":2013:2038   */\n  gt\n    /* \"#utility.yul\":2010:2122   */\n  iszero\n  tag_64\n  jumpi\n    /* \"#utility.yul\":2041:2120   */\n  tag_65\n  tag_13\n  jump\t// in\ntag_65:\n    /* \"#utility.yul\":2010:2122   */\ntag_64:\n    /* \"#utility.yul\":2131:2183   */\n  tag_66\n    /* \"#utility.yul\":2176:2182   */\n  dup5\n    /* \"#utility.yul\":2171:2174   */\n  dup3\n    /* \"#utility.yul\":2166:2169   */\n  dup6\n    /* \"#utility.yul\":2131:2183   */\n  tag_19\n  jump\t// in\ntag_66:\n    /* \"#utility.yul\":1850:2189   */\n  pop\n    /* \"#utility.yul\":1755:2189   */\n  swap4\n  swap3\n  pop\n  pop\n  pop\n  jump\t// out\n    /* \"#utility.yul\":2209:2564   */\ntag_21:\n    /* \"#utility.yul\":2276:2281   */\n  0x00\n    /* \"#utility.yul\":2325:2328   */\n  dup3\n    /* \"#utility.yul\":2318:2322   */\n  0x1f\n    /* \"#utility.yul\":2310:2316   */\n  dup4\n    /* \"#utility.yul\":2306:2323   */\n  add\n    /* \"#utility.yul\":2302:2329   */\n  slt\n    /* \"#utility.yul\":2292:2414   */\n  tag_68\n  jumpi\n    /* \"#utility.yul\":2333:2412   */\n  tag_69\n  tag_12\n  jump\t// in\ntag_69:\n    /* \"#utility.yul\":2292:2414   */\ntag_68:\n    /* \"#utility.yul\":2443:2449   */\n  dup2\n    /* \"#utility.yul\":2437:2450   */\n  mload\n    /* \"#utility.yul\":2468:2558   */\n  tag_70\n    /* \"#utility.yul\":2554:2557   */\n  dup5\n    /* \"#utility.yul\":2546:2552   */\n  dup3\n    /* \"#utility.yul\":2539:2543   */\n  0x20\n    /* \"#utility.yul\":2531:2537   */\n  dup7\n    /* \"#utility.yul\":2527:2544   */\n  add\n    /* \"#utility.yul\":2468:2558   */\n  tag_20\n  jump\t// in\ntag_70:\n    /* \"#utility.yul\":2459:2558   */\n  swap2\n  pop\n    /* \"#utility.yul\":2282:2564   */\n  pop\n    /* \"#utility.yul\":2209:2564   */\n  swap3\n  swap2\n  pop\n  pop\n  jump\t// out\n    /* \"#utility.yul\":2570:3094   */\ntag_3:\n    /* \"#utility.yul\":2650:2656   */\n  0x00\n    /* \"#utility.yul\":2699:2701   */\n  0x20\n    /* \"#utility.yul\":2687:2696   */\n  dup3\n    /* \"#utility.yul\":2678:2685   */\n  dup5\n    /* \"#utility.yul\":2674:2697   */\n  sub\n    /* \"#utility.yul\":2670:2702   */\n  slt\n    /* \"#utility.yul\":2667:2786   */\n  iszero\n  tag_72\n  jumpi\n    /* \"#utility.yul\":2705:2784   */\n  tag_73\n  tag_10\n  jump\t// in\ntag_73:\n    /* \"#utility.yul\":2667:2786   */\ntag_72:\n    /* \"#utility.yul\":2846:2847   */\n  0x00\n    /* \"#utility.yul\":2835:2844   */\n  dup3\n    /* \"#utility.yul\":2831:2848   */\n  add\n    /* \"#utility.yul\":2825:2849   */\n  mload\n    /* \"#utility.yul\":2876:2894   */\n  0xffffffffffffffff\n    /* \"#utility.yul\":2868:2874   */\n  dup2\n    /* \"#utility.yul\":2865:2895   */\n  gt\n    /* \"#utility.yul\":2862:2979   */\n  iszero\n  tag_74\n  jumpi\n    /* \"#utility.yul\":2898:2977   */\n  tag_75\n  tag_11\n  jump\t// in\ntag_75:\n    /* \"#utility.yul\":2862:2979   */\ntag_74:\n    /* \"#utility.yul\":3003:3077   */\n  tag_76\n    /* \"#utility.yul\":3069:3076   */\n  dup5\n    /* \"#utility.yul\":3060:3066   */\n  dup3\n    /* \"#utility.yul\":3049:3058   */\n  dup6\n    /* \"#utility.yul\":3045:3067   */\n  add\n    /* \"#utility.yul\":3003:3077   */\n  tag_21\n  jump\t// in\ntag_76:\n    /* \"#utility.yul\":2993:3077   */\n  swap2\n  pop\n    /* \"#utility.yul\":2796:3087   */\n  pop\n    /* \"#utility.yul\":2570:3094   */\n  swap3\n  swap2\n  pop\n  pop\n  jump\t// out\n    /* \"#utility.yul\":3100:3199   */\ntag_22:\n    /* \"#utility.yul\":3152:3158   */\n  0x00\n    /* \"#utility.yul\":3186:3191   */\n  dup2\n    /* \"#utility.yul\":3180:3192   */\n  mload\n    /* \"#utility.yul\":3170:3192   */\n  swap1\n  pop\n    /* \"#utility.yul\":3100:3199   */\n  swap2\n  swap1\n  pop\n  jump\t// out\n    /* \"#utility.yul\":3205:3385   */\ntag_23:\n    /* \"#utility.yul\":3253:3330   */\n  0x4e487b7100000000000000000000000000000000000000000000000000000000\n    /* \"#utility.yul\":3250:3251   */\n  0x00\n    /* \"#utility.yul\":3243:3331   */\n  mstore\n    /* \"#utility.yul\":3350:3354   */\n  0x22\n    /* \"#utility.yul\":3347:3348   */\n  0x04\n    /* \"#utility.yul\":3340:3355   */\n  mstore\n    /* \"#utility.yul\":3374:3378   */\n  0x24\n    /* \"#utility.yul\":3371:3372   */\n  0x00\n    /* \"#utility.yul\":3364:3379   */\n  revert\n    /* \"#utility.yul\":3391:3711   */\ntag_24:\n    /* \"#utility.yul\":3435:3441   */\n  0x00\n    /* \"#utility.yul\":3472:3473   */\n  0x02\n    /* \"#utility.yul\":3466:3470   */\n  dup3\n    /* \"#utility.yul\":3462:3474   */\n  div\n    /* \"#utility.yul\":3452:3474   */\n  swap1\n  pop\n    /* \"#utility.yul\":3519:3520   */\n  0x01\n    /* \"#utility.yul\":3513:3517   */\n  dup3\n    /* \"#utility.yul\":3509:3521   */\n  and\n    /* \"#utility.yul\":3540:3558   */\n  dup1\n    /* \"#utility.yul\":3530:3611   */\n  tag_80\n  jumpi\n    /* \"#utility.yul\":3596:3600   */\n  0x7f\n    /* \"#utility.yul\":3588:3594   */\n  dup3\n    /* \"#utility.yul\":3584:3601   */\n  and\n    /* \"#utility.yul\":3574:3601   */\n  swap2\n  pop\n    /* \"#utility.yul\":3530:3611   */\ntag_80:\n    /* \"#utility.yul\":3658:3660   */\n  0x20\n    /* \"#utility.yul\":3650:3656   */\n  dup3\n    /* \"#utility.yul\":3647:3661   */\n  lt\n    /* \"#utility.yul\":3627:3645   */\n  dup2\n    /* \"#utility.yul\":3624:3662   */\n  sub\n    /* \"#utility.yul\":3621:3705   */\n  tag_81\n  jumpi\n    /* \"#utility.yul\":3677:3695   */\n  tag_82\n  tag_23\n  jump\t// in\ntag_82:\n    /* \"#utility.yul\":3621:3705   */\ntag_81:\n    /* \"#utility.yul\":3442:3711   */\n  pop\n    /* \"#utility.yul\":3391:3711   */\n  swap2\n  swap1\n  pop\n  jump\t// out\n    /* \"#utility.yul\":3717:3858   */\ntag_25:\n    /* \"#utility.yul\":3766:3770   */\n  0x00\n    /* \"#utility.yul\":3789:3792   */\n  dup2\n    /* \"#utility.yul\":3781:3792   */\n  swap1\n  pop\n    /* \"#utility.yul\":3812:3815   */\n  dup2\n    /* \"#utility.yul\":3809:3810   */\n  0x00\n    /* \"#utility.yul\":3802:3816   */\n  mstore\n    /* \"#utility.yul\":3846:3850   */\n  0x20\n    /* \"#utility.yul\":3843:3844   */\n  0x00\n    /* \"#utility.yul\":3833:3851   */\n  keccak256\n    /* \"#utility.yul\":3825:3851   */\n  swap1\n  pop\n    /* \"#utility.yul\":3717:3858   */\n  swap2\n  swap1\n  pop\n  jump\t// out\n    /* \"#utility.yul\":3864:3957   */\ntag_26:\n    /* \"#utility.yul\":3901:3907   */\n  0x00\n    /* \"#utility.yul\":3948:3950   */\n  0x20\n    /* \"#utility.yul\":3943:3945   */\n  0x1f\n    /* \"#utility.yul\":3936:3941   */\n  dup4\n    /* \"#utility.yul\":3932:3946   */\n  add\n    /* \"#utility.yul\":3928:3951   */\n  div\n    /* \"#utility.yul\":3918:3951   */\n  swap1\n  pop\n    /* \"#utility.yul\":3864:3957   */\n  swap2\n  swap1\n  pop\n  jump\t// out\n    /* \"#utility.yul\":3963:4070   */\ntag_27:\n    /* \"#utility.yul\":4007:4015   */\n  0x00\n    /* \"#utility.yul\":4057:4062   */\n  dup3\n    /* \"#utility.yul\":4051:4055   */\n  dup3\n    /* \"#utility.yul\":4047:4063   */\n  shl\n    /* \"#utility.yul\":4026:4063   */\n  swap1\n  pop\n    /* \"#utility.yul\":3963:4070   */\n  swap3\n  swap2\n  pop\n  pop\n  jump\t// out\n    /* \"#utility.yul\":4076:4469   */\ntag_28:\n    /* \"#utility.yul\":4145:4151   */\n  0x00\n    /* \"#utility.yul\":4195:4196   */\n  0x08\n    /* \"#utility.yul\":4183:4193   */\n  dup4\n    /* \"#utility.yul\":4179:4197   */\n  mul\n    /* \"#utility.yul\":4218:4315   */\n  tag_87\n    /* \"#utility.yul\":4248:4314   */\n  0xffffffffffffffffffffffffffffffffffffffffffffffffffffffffffffffff\n    /* \"#utility.yul\":4237:4246   */\n  dup3\n    /* \"#utility.yul\":4218:4315   */\n  tag_27\n  jump\t// in\ntag_87:\n    /* \"#utility.yul\":4336:4375   */\n  tag_88\n    /* \"#utility.yul\":4366:4374   */\n  dup7\n    /* \"#utility.yul\":4355:4364   */\n  dup4\n    /* \"#utility.yul\":4336:4375   */\n  tag_27\n  jump\t// in\ntag_88:\n    /* \"#utility.yul\":4324:4375   */\n  swap6\n  pop\n    /* \"#utility.yul\":4408:4412   */\n  dup1\n    /* \"#utility.yul\":4404:4413   */\n  not\n    /* \"#utility.yul\":4397:4402   */\n  dup5\n    /* \"#utility.yul\":4393:4414   */\n  and\n    /* \"#utility.yul\":4384:4414   */\n  swap4\n  pop\n    /* \"#utility.yul\":4457:4461   */\n  dup1\n    /* \"#utility.yul\":4447:4455   */\n  dup7\n    /* \"#utility.yul\":4443:4462   */\n  and\n    /* \"#utility.yul\":4436:4441   */\n  dup5\n    /* \"#utility.yul\":4433:4463   */\n  or\n    /* \"#utility.yul\":4423:4463   */\n  swap3\n  pop\n    /* \"#utility.yul\":4152:4469   */\n  pop\n  pop\n    /* \"#utility.yul\":4076:4469   */\n  swap4\n  swap3\n  pop\n  pop\n  pop\n  jump\t// out\n    /* \"#utility.yul\":4475:4552   */\ntag_29:\n    /* \"#utility.yul\":4512:4519   */\n  0x00\n    /* \"#utility.yul\":4541:4546   */\n  dup2\n    /* \"#utility.yul\":4530:4546   */\n  swap1\n  pop\n    /* \"#utility.yul\":4475:4552   */\n  swap2\n  swap1\n  pop\n  jump\t// out\n    /* \"#utility.yul\":4558:4618   */\ntag_30:\n    /* \"#utility.yul\":4586:4589   */\n  0x00\n    /* \"#utility.yul\":4607:4612   */\n  dup2\n    /* \"#utility.yul\":4600:4612   */\n  swap1\n  pop\n    /* \"#utility.yul\":4558:4618   */\n  swap2\n  swap1\n  pop\n  jump\t// out\n    /* \"#utility.yul\":4624:4766   */\ntag_31:\n    /* \"#utility.yul\":4674:4683   */\n  0x00\n    /* \"#utility.yul\":4707:4760   */\n  tag_92\n    /* \"#utility.yul\":4725:4759   */\n  tag_93\n    /* \"#utility.yul\":4734:4758   */\n  tag_94\n    /* \"#utility.yul\":4752:4757   */\n  dup5\n    /* \"#utility.yul\":4734:4758   */\n  tag_29\n  jump\t// in\ntag_94:\n    /* \"#utility.yul\":4725:4759   */\n  tag_30\n  jump\t// in\ntag_93:\n    /* \"#utility.yul\":4707:4760   */\n  tag_29\n  jump\t// in\ntag_92:\n    /* \"#utility.yul\":4694:4760   */\n  swap1\n  pop\n    /* \"#utility.yul\":4624:4766   */\n  swap2\n  swap1\n  pop\n  jump\t// out\n    /* \"#utility.yul\":4772:4847   */\ntag_32:\n    /* \"#utility.yul\":4815:4818   */\n  0x00\n    /* \"#utility.yul\":4836:4841   */\n  dup2\n    /* \"#utility.yul\":4829:4841   */\n  swap1\n  pop\n    /* \"#utility.yul\":4772:4847   */\n  swap2\n  swap1\n  pop\n  jump\t// out\n    /* \"#utility.yul\":4853:5122   */\ntag_33:\n    /* \"#utility.yul\":4963:5002   */\n  tag_97\n    /* \"#utility.yul\":4994:5001   */\n  dup4\n    /* \"#utility.yul\":4963:5002   */\n  tag_31\n  jump\t// in\ntag_97:\n    /* \"#utility.yul\":5024:5115   */\n  tag_98\n    /* \"#utility.yul\":5073:5114   */\n  tag_99\n    /* \"#utility.yul\":5097:5113   */\n  dup3\n    /* \"#utility.yul\":5073:5114   */\n  tag_32\n  jump\t// in\ntag_99:\n    /* \"#utility.yul\":5065:5071   */\n  dup5\n    /* \"#utility.yul\":5058:5062   */\n  dup5\n    /* \"#utility.yul\":5052:5063   */\n  sload\n    /* \"#utility.yul\":5024:5115   */\n  tag_28\n  jump\t// in\ntag_98:\n    /* \"#utility.yul\":5018:5022   */\n  dup3\n    /* \"#utility.yul\":5011:5116   */\n  sstore\n    /* \"#utility.yul\":4929:5122   */\n  pop\n    /* \"#utility.yul\":4853:5122   */\n  pop\n  pop\n  pop\n  jump\t// out\n    /* \"#utility.yul\":5128:5201   */\ntag_34:\n    /* \"#utility.yul\":5173:5176   */\n  0x00\n    /* \"#utility.yul\":5194:5195   */\n  0x00\n    /* \"#utility.yul\":5187:5195   */\n  swap1\n  pop\n    /* \"#utility.yul\":5128:5201   */\n  swap1\n  jump\t// out\n    /* \"#utility.yul\":5207:5396   */\ntag_35:\n    /* \"#utility.yul\":5284:5316   */\n  tag_102\n  tag_34\n  jump\t// in\ntag_102:\n    /* \"#utility.yul\":5325:5390   */\n  tag_103\n    /* \"#utility.yul\":5383:5389   */\n  dup2\n    /* \"#utility.yul\":5375:5381   */\n  dup5\n    /* \"#utility.yul\":5369:5373   */\n  dup5\n    /* \"#utility.yul\":5325:5390   */\n  tag_33\n  jump\t// in\ntag_103:\n    /* \"#utility.yul\":5260:5396   */\n  pop\n    /* \"#utility.yul\":5207:5396   */\n  pop\n  pop\n  jump\t// out\n    /* \"#utility.yul\":5402:5588   */\ntag_36:\n    /* \"#utility.yul\":5462:5582   */\ntag_105:\n    /* \"#utility.yul\":5479:5482   */\n  dup2\n    /* \"#utility.yul\":5472:5477   */\n  dup2\n    /* \"#utility.yul\":5469:5483   */\n  lt\n    /* \"#utility.yul\":5462:5582   */\n  iszero\n  tag_107\n  jumpi\n    /* \"#utility.yul\":5533:5572   */\n  tag_108\n    /* \"#utility.yul\":5570:5571   */\n  0x00\n    /* \"#utility.yul\":5563:5568   */\n  dup3\n    /* \"#utility.yul\":5533:5572   */\n  tag_35\n  jump\t// in\ntag_108:\n    /* \"#utility.yul\":5506:5507   */\n  0x01\n    /* \"#utility.yul\":5499:5504   */\n  dup2\n    /* \"#utility.yul\":5495:5508   */\n  add\n    /* \"#utility.yul\":5486:5508   */\n  swap1\n  pop\n    /* \"#utility.yul\":5462:5582   */\n  jump(tag_105)\ntag_107:\n    /* \"#utility.yul\":5402:5588   */\n  pop\n  pop\n  jump\t// out\n    /* \"#utility.yul\":5594:6137   */\ntag_37:\n    /* \"#utility.yul\":5695:5697   */\n  0x1f\n    /* \"#utility.yul\":5690:5693   */\n  dup3\n    /* \"#utility.yul\":5687:5698   */\n  gt\n    /* \"#utility.yul\":5684:6130   */\n  iszero\n  tag_110\n  jumpi\n    /* \"#utility.yul\":5729:5767   */\n  tag_111\n    /* \"#utility.yul\":5761:5766   */\n  dup2\n    /* \"#utility.yul\":5729:5767   */\n  tag_25\n  jump\t// in\ntag_111:\n    /* \"#utility.yul\":5813:5842   */\n  tag_112\n    /* \"#utility.yul\":5831:5841   */\n  dup5\n    /* \"#utility.yul\":5813:5842   */\n  tag_26\n  jump\t// in\ntag_112:\n    /* \"#utility.yul\":5803:5811   */\n  dup2\n    /* \"#utility.yul\":5799:5843   */\n  add\n    /* \"#utility.yul\":5996:5998   */\n  0x20\n    /* \"#utility.yul\":5984:5994   */\n  dup6\n    /* \"#utility.yul\":5981:5999   */\n  lt\n    /* \"#utility.yul\":5978:6027   */\n  iszero\n  tag_113\n  jumpi\n    /* \"#utility.yul\":6017:6025   */\n  dup2\n    /* \"#utility.yul\":6002:6025   */\n  swap1\n  pop\n    /* \"#utility.yul\":5978:6027   */\ntag_113:\n    /* \"#utility.yul\":6040:6120   */\n  tag_114\n    /* \"#utility.yul\":6096:6118   */\n  tag_115\n    /* \"#utility.yul\":6114:6117   */\n  dup6\n    /* \"#utility.yul\":6096:6118   */\n  tag_26\n  jump\t// in\ntag_115:\n    /* \"#utility.yul\":6086:6094   */\n  dup4\n    /* \"#utility.yul\":6082:6119   */\n  add\n    /* \"#utility.yul\":6069:6080   */\n  dup3\n    /* \"#utility.yul\":6040:6120   */\n  tag_36\n  jump\t// in\ntag_114:\n    /* \"#utility.yul\":5699:6130   */\n  pop\n  pop\n    /* \"#utility.yul\":5684:6130   */\ntag_110:\n    /* \"#utility.yul\":5594:6137   */\n  pop\n  pop\n  pop\n  jump\t// out\n    /* \"#utility.yul\":6143:6260   */\ntag_38:\n    /* \"#utility.yul\":6197:6205   */\n  0x00\n    /* \"#utility.yul\":6247:6252   */\n  dup3\n    /* \"#utility.yul\":6241:6245   */\n  dup3\n    /* \"#utility.yul\":6237:6253   */\n  shr\n    /* \"#utility.yul\":6216:6253   */\n  swap1\n  pop\n    /* \"#utility.yul\":6143:6260   */\n  swap3\n  swap2\n  pop\n  pop\n  jump\t// out\n    /* \"#utility.yul\":6266:6435   */\ntag_39:\n    /* \"#utility.yul\":6310:6316   */\n  0x00\n    /* \"#utility.yul\":6343:6394   */\n  tag_118\n    /* \"#utility.yul\":6391:6392   */\n  0x00\n    /* \"#utility.yul\":6387:6393   */\n  not\n    /* \"#utility.yul\":6379:6384   */\n  dup5\n    /* \"#utility.yul\":6376:6377   */\n  0x08\n    /* \"#utility.yul\":6372:6385   */\n  mul\n    /* \"#utility.yul\":6343:6394   */\n  tag_38\n  jump\t// in\ntag_118:\n    /* \"#utility.yul\":6339:6395   */\n  not\n    /* \"#utility.yul\":6424:6428   */\n  dup1\n    /* \"#utility.yul\":6418:6422   */\n  dup4\n    /* \"#utility.yul\":6414:6429   */\n  and\n    /* \"#utility.yul\":6404:6429   */\n  swap2\n  pop\n    /* \"#utility.yul\":6317:6435   */\n  pop\n    /* \"#utility.yul\":6266:6435   */\n  swap3\n  swap2\n  pop\n  pop\n  jump\t// out\n    /* \"#utility.yul\":6440:6735   */\ntag_40:\n    /* \"#utility.yul\":6516:6520   */\n  0x00\n    /* \"#utility.yul\":6662:6691   */\n  tag_120\n    /* \"#utility.yul\":6687:6690   */\n  dup4\n    /* \"#utility.yul\":6681:6685   */\n  dup4\n    /* \"#utility.yul\":6662:6691   */\n  tag_39\n  jump\t// in\ntag_120:\n    /* \"#utility.yul\":6654:6691   */\n  swap2\n  pop\n    /* \"#utility.yul\":6724:6727   */\n  dup3\n    /* \"#utility.yul\":6721:6722   */\n  0x02\n    /* \"#utility.yul\":6717:6728   */\n  mul\n    /* \"#utility.yul\":6711:6715   */\n  dup3\n    /* \"#utility.yul\":6708:6729   */\n  or\n    /* \"#utility.yul\":6700:6729   */\n  swap1\n  pop\n    /* \"#utility.yul\":6440:6735   */\n  swap3\n  swap2\n  pop\n  pop\n  jump\t// out\n    /* \"#utility.yul\":6740:8135   */\ntag_7:\n    /* \"#utility.yul\":6857:6894   */\n  tag_122\n    /* \"#utility.yul\":6890:6893   */\n  dup3\n    /* \"#utility.yul\":6857:6894   */\n  tag_22\n  jump\t// in\ntag_122:\n    /* \"#utility.yul\":6959:6977   */\n  0xffffffffffffffff\n    /* \"#utility.yul\":6951:6957   */\n  dup2\n    /* \"#utility.yul\":6948:6978   */\n  gt\n    /* \"#utility.yul\":6945:7001   */\n  iszero\n  tag_123\n  jumpi\n    /* \"#utility.yul\":6981:6999   */\n  tag_124\n  tag_15\n  jump\t// in\ntag_124:\n    /* \"#utility.yul\":6945:7001   */\ntag_123:\n    /* \"#utility.yul\":7025:7063   */\n  tag_125\n    /* \"#utility.yul\":7057:7061   */\n  dup3\n    /* \"#utility.yul\":7051:7062   */\n  sload\n    /* \"#utility.yul\":7025:7063   */\n  tag_24\n  jump\t// in\ntag_125:\n    /* \"#utility.yul\":7110:7177   */\n  tag_126\n    /* \"#utility.yul\":7170:7176   */\n  dup3\n    /* \"#utility.yul\":7162:7168   */\n  dup3\n    /* \"#utility.yul\":7156:7160   */\n  dup6\n    /* \"#utility.yul\":7110:7177   */\n  tag_37\n  jump\t// in\ntag_126:\n    /* \"#utility.yul\":7204:7205   */\n  0x00\n    /* \"#utility.yul\":7228:7232   */\n  0x20\n    /* \"#utility.yul\":7215:7232   */\n  swap1\n  pop\n    /* \"#utility.yul\":7260:7262   */\n  0x1f\n    /* \"#utility.yul\":7252:7258   */\n  dup4\n    /* \"#utility.yul\":7249:7263   */\n  gt\n    /* \"#utility.yul\":7277:7278   */\n  0x01\n    /* \"#utility.yul\":7272:7890   */\n  dup2\n  eq\n  tag_128\n  jumpi\n    /* \"#utility.yul\":7934:7935   */\n  0x00\n    /* \"#utility.yul\":7951:7957   */\n  dup5\n    /* \"#utility.yul\":7948:8025   */\n  iszero\n  tag_129\n  jumpi\n    /* \"#utility.yul\":8000:8009   */\n  dup3\n    /* \"#utility.yul\":7995:7998   */\n  dup8\n    /* \"#utility.yul\":7991:8010   */\n  add\n    /* \"#utility.yul\":7985:8011   */\n  mload\n    /* \"#utility.yul\":7976:8011   */\n  swap1\n  pop\n    /* \"#utility.yul\":7948:8025   */\ntag_129:\n    /* \"#utility.yul\":8051:8118   */\n  tag_130\n    /* \"#utility.yul\":8111:8117   */\n  dup6\n    /* \"#utility.yul\":8104:8109   */\n  dup3\n    /* \"#utility.yul\":8051:8118   */\n  tag_40\n  jump\t// in\ntag_130:\n    /* \"#utility.yul\":8045:8049   */\n  dup7\n    /* \"#utility.yul\":8038:8119   */\n  sstore\n    /* \"#utility.yul\":7907:8129   */\n  pop\n    /* \"#utility.yul\":7242:8129   */\n  jump(tag_127)\n    /* \"#utility.yul\":7272:7890   */\ntag_128:\n    /* \"#utility.yul\":7324:7328   */\n  0x1f\n    /* \"#utility.yul\":7320:7329   */\n  not\n    /* \"#utility.yul\":7312:7318   */\n  dup5\n    /* \"#utility.yul\":7308:7330   */\n  and\n    /* \"#utility.yul\":7358:7395   */\n  tag_131\n    /* \"#utility.yul\":7390:7394   */\n  dup7\n    /* \"#utility.yul\":7358:7395   */\n  tag_25\n  jump\t// in\ntag_131:\n    /* \"#utility.yul\":7417:7418   */\n  0x00\n    /* \"#utility.yul\":7431:7639   */\ntag_132:\n    /* \"#utility.yul\":7445:7452   */\n  dup3\n    /* \"#utility.yul\":7442:7443   */\n  dup2\n    /* \"#utility.yul\":7439:7453   */\n  lt\n    /* \"#utility.yul\":7431:7639   */\n  iszero\n  tag_134\n  jumpi\n    /* \"#utility.yul\":7524:7533   */\n  dup5\n    /* \"#utility.yul\":7519:7522   */\n  dup10\n    /* \"#utility.yul\":7515:7534   */\n  add\n    /* \"#utility.yul\":7509:7535   */\n  mload\n    /* \"#utility.yul\":7501:7507   */\n  dup3\n    /* \"#utility.yul\":7494:7536   */\n  sstore\n    /* \"#utility.yul\":7575:7576   */\n  0x01\n    /* \"#utility.yul\":7567:7573   */\n  dup3\n    /* \"#utility.yul\":7563:7577   */\n  add\n    /* \"#utility.yul\":7553:7577   */\n  swap2\n  pop\n    /* \"#utility.yul\":7622:7624   */\n  0x20\n    /* \"#utility.yul\":7611:7620   */\n  dup6\n    /* \"#utility.yul\":7607:7625   */\n  add\n    /* \"#utility.yul\":7594:7625   */\n  swap5\n  pop\n    /* \"#utility.yul\":7468:7472   */\n  0x20\n    /* \"#utility.yul\":7465:7466   */\n  dup2\n    /* \"#utility.yul\":7461:7473   */\n  add\n    /* \"#utility.yul\":7456:7473   */\n  swap1\n  pop\n    /* \"#utility.yul\":7431:7639   */\n  jump(tag_132)\ntag_134:\n    /* \"#utility.yul\":7667:7673   */\n  dup7\n    /* \"#utility.yul\":7658:7665   */\n  dup4\n    /* \"#utility.yul\":7655:7674   */\n  lt\n    /* \"#utility.yul\":7652:7831   */\n  iszero\n  tag_135\n  jumpi\n    /* \"#utility.yul\":7725:7734   */\n  dup5\n    /* \"#utility.yul\":7720:7723   */\n  dup10\n    /* \"#utility.yul\":7716:7735   */\n  add\n    /* \"#utility.yul\":7710:7736   */\n  mload\n    /* \"#utility.yul\":7768:7816   */\n  tag_136\n    /* \"#utility.yul\":7810:7814   */\n  0x1f\n    /* \"#utility.yul\":7802:7808   */\n  dup10\n    /* \"#utility.yul\":7798:7815   */\n  and\n    /* \"#utility.yul\":7787:7796   */\n  dup3\n    /* \"#utility.yul\":7768:7816   */\n  tag_39\n  jump\t// in\ntag_136:\n    /* \"#utility.yul\":7760:7766   */\n  dup4\n    /* \"#utility.yul\":7753:7817   */\n  sstore\n    /* \"#utility.yul\":7675:7831   */\n  pop\n    /* \"#utility.yul\":7652:7831   */\ntag_135:\n    /* \"#utility.yul\":7877:7878   */\n  0x01\n    /* \"#utility.yul\":7873:7874   */\n  0x02\n    /* \"#utility.yul\":7865:7871   */\n  dup9\n    /* \"#utility.yul\":7861:7875   */\n  mul\n    /* \"#utility.yul\":7857:7879   */\n  add\n    /* \"#utility.yul\":7851:7855   */\n  dup9\n    /* \"#utility.yul\":7844:7880   */\n  sstore\n    /* \"#utility.yul\":7279:7890   */\n  pop\n  pop\n  pop\n    /* \"#utility.yul\":7242:8129   */\ntag_127:\n  pop\n    /* \"#utility.yul\":6832:8135   */\n  pop\n  pop\n  pop\n    /* \"#utility.yul\":6740:8135   */\n  pop\n  pop\n  jump\t// out\n    /* \"contracts/newContract.sol\":57:398  contract MyContract {... */\ntag_8:\n  dataSize(sub_0)\n  dup1\n  dataOffset(sub_0)\n  0x00\n  codecopy\n  0x00\n  return\nstop\n\nsub_0: assembly {\n        /* \"contracts/newContract.sol\":57:398  contract MyContract {... */\n      mstore(0x40, 0x80)\n      callvalue\n      dup1\n      iszero\n      tag_1\n      jumpi\n      revert(0x00, 0x00)\n    tag_1:\n      pop\n      jumpi(tag_2, lt(calldatasize, 0x04))\n      shr(0xe0, calldataload(0x00))\n      dup1\n      0x368b8772\n      eq\n      tag_3\n      jumpi\n      dup1\n      0x5b34b966\n      eq\n      tag_4\n      jumpi\n      dup1\n      0x61bc221a\n      eq\n      tag_5\n      jumpi\n      dup1\n      0xe21f37ce\n      eq\n      tag_6\n      jumpi\n    tag_2:\n      revert(0x00, 0x00)\n        /* \"contracts/newContract.sol\":234:326  function setMessage(string memory _newMessage) public {... */\n    tag_3:\n      tag_7\n      0x04\n      dup1\n      calldatasize\n      sub\n      dup2\n      add\n      swap1\n      tag_8\n      swap2\n      swap1\n      tag_9\n      jump\t// in\n    tag_8:\n      tag_10\n      jump\t// in\n    tag_7:\n      stop\n        /* \"contracts/newContract.sol\":332:396  function incrementCounter() public {... */\n    tag_4:\n      tag_11\n      tag_12\n      jump\t// in\n    tag_11:\n      stop\n        /* \"contracts/newContract.sol\":110:129  uint public counter */\n    tag_5:\n      tag_13\n      tag_14\n      jump\t// in\n    tag_13:\n      mload(0x40)\n      tag_15\n      swap2\n      swap1\n      tag_16\n      jump\t// in\n    tag_15:\n      mload(0x40)\n      dup1\n      swap2\n      sub\n      swap1\n      return\n        /* \"contracts/newContract.sol\":83:104  string public message */\n    tag_6:\n      tag_17\n      tag_18\n      jump\t// in\n    tag_17:\n      mload(0x40)\n      tag_19\n      swap2\n      swap1\n      tag_20\n      jump\t// in\n    tag_19:\n      mload(0x40)\n      dup1\n      swap2\n      sub\n      swap1\n      return\n        /* \"contracts/newContract.sol\":234:326  function setMessage(string memory _newMessage) public {... */\n    tag_10:\n        /* \"contracts/newContract.sol\":308:319  _newMessage */\n      dup1\n        /* \"contracts/newContract.sol\":298:305  message */\n      0x00\n        /* \"contracts/newContract.sol\":298:319  message = _newMessage */\n      swap1\n      dup2\n      tag_22\n      swap2\n      swap1\n      tag_23\n      jump\t// in\n    tag_22:\n      pop\n        /* \"contracts/newContract.sol\":234:326  function setMessage(string memory _newMessage) public {... */\n      pop\n      jump\t// out\n        /* \"contracts/newContract.sol\":332:396  function incrementCounter() public {... */\n    tag_12:\n        /* \"contracts/newContract.sol\":388:389  1 */\n      0x01\n        /* \"contracts/newContract.sol\":377:384  counter */\n      dup1\n      0x00\n        /* \"contracts/newContract.sol\":377:389  counter += 1 */\n      dup3\n      dup3\n      sload\n      tag_25\n      swap2\n      swap1\n      tag_26\n      jump\t// in\n    tag_25:\n      swap3\n      pop\n      pop\n      dup2\n      swap1\n      sstore\n      pop\n        /* \"contracts/newContract.sol\":332:396  function incrementCounter() public {... */\n      jump\t// out\n        /* \"contracts/newContract.sol\":110:129  uint public counter */\n    tag_14:\n      sload(0x01)\n      dup2\n      jump\t// out\n        /* \"contracts/newContract.sol\":83:104  string public message */\n    tag_18:\n      0x00\n      dup1\n      sload\n      tag_27\n      swap1\n      tag_28\n      jump\t// in\n    tag_27:\n      dup1\n      0x1f\n      add\n      0x20\n      dup1\n      swap2\n      div\n      mul\n      0x20\n      add\n      mload(0x40)\n      swap1\n      dup2\n      add\n      0x40\n      mstore\n      dup1\n      swap3\n      swap2\n      swap1\n      dup2\n      dup2\n      mstore\n      0x20\n      add\n      dup3\n      dup1\n      sload\n      tag_29\n      swap1\n      tag_28\n      jump\t// in\n    tag_29:\n      dup1\n      iszero\n      tag_30\n      jumpi\n      dup1\n      0x1f\n      lt\n      tag_31\n      jumpi\n      0x0100\n      dup1\n      dup4\n      sload\n      div\n      mul\n      dup4\n      mstore\n      swap2\n      0x20\n      add\n      swap2\n      jump(tag_30)\n    tag_31:\n      dup3\n      add\n      swap2\n      swap1\n      0x00\n      mstore\n      keccak256(0x00, 0x20)\n      swap1\n    tag_32:\n      dup2\n      sload\n      dup2\n      mstore\n      swap1\n      0x01\n      add\n      swap1\n      0x20\n      add\n      dup1\n      dup4\n      gt\n      tag_32\n      jumpi\n      dup3\n      swap1\n      sub\n      0x1f\n      and\n      dup3\n      add\n      swap2\n    tag_30:\n      pop\n      pop\n      pop\n      pop\n      pop\n      dup2\n      jump\t// out\n        /* \"#utility.yul\":7:82   */\n    tag_33:\n        /* \"#utility.yul\":40:46   */\n      0x00\n        /* \"#utility.yul\":73:75   */\n      0x40\n        /* \"#utility.yul\":67:76   */\n      mload\n        /* \"#utility.yul\":57:76   */\n      swap1\n      pop\n        /* \"#utility.yul\":7:82   */\n      swap1\n      jump\t// out\n        /* \"#utility.yul\":88:205   */\n    tag_34:\n        /* \"#utility.yul\":197:198   */\n      0x00\n        /* \"#utility.yul\":194:195   */\n      0x00\n        /* \"#utility.yul\":187:199   */\n      revert\n        /* \"#utility.yul\":211:328   */\n    tag_35:\n        /* \"#utility.yul\":320:321   */\n      0x00\n        /* \"#utility.yul\":317:318   */\n      0x00\n        /* \"#utility.yul\":310:322   */\n      revert\n        /* \"#utility.yul\":334:451   */\n    tag_36:\n        /* \"#utility.yul\":443:444   */\n      0x00\n        /* \"#utility.yul\":440:441   */\n      0x00\n        /* \"#utility.yul\":433:445   */\n      revert\n        /* \"#utility.yul\":457:574   */\n    tag_37:\n        /* \"#utility.yul\":566:567   */\n      0x00\n        /* \"#utility.yul\":563:564   */\n      0x00\n        /* \"#utility.yul\":556:568   */\n      revert\n        /* \"#utility.yul\":580:682   */\n    tag_38:\n        /* \"#utility.yul\":621:627   */\n      0x00\n        /* \"#utility.yul\":672:674   */\n      0x1f\n        /* \"#utility.yul\":668:675   */\n      not\n        /* \"#utility.yul\":663:665   */\n      0x1f\n        /* \"#utility.yul\":656:661   */\n      dup4\n        /* \"#utility.yul\":652:666   */\n      add\n        /* \"#utility.yul\":648:676   */\n      and\n        /* \"#utility.yul\":638:676   */\n      swap1\n      pop\n        /* \"#utility.yul\":580:682   */\n      swap2\n      swap1\n      pop\n      jump\t// out\n        /* \"#utility.yul\":688:868   */\n    tag_39:\n        /* \"#utility.yul\":736:813   */\n      0x4e487b7100000000000000000000000000000000000000000000000000000000\n        /* \"#utility.yul\":733:734   */\n      0x00\n        /* \"#utility.yul\":726:814   */\n      mstore\n        /* \"#utility.yul\":833:837   */\n      0x41\n        /* \"#utility.yul\":830:831   */\n      0x04\n        /* \"#utility.yul\":823:838   */\n      mstore\n        /* \"#utility.yul\":857:861   */\n      0x24\n        /* \"#utility.yul\":854:855   */\n      0x00\n        /* \"#utility.yul\":847:862   */\n      revert\n        /* \"#utility.yul\":874:1155   */\n    tag_40:\n        /* \"#utility.yul\":957:984   */\n      tag_78\n        /* \"#utility.yul\":979:983   */\n      dup3\n        /* \"#utility.yul\":957:984   */\n      tag_38\n      jump\t// in\n    tag_78:\n        /* \"#utility.yul\":949:955   */\n      dup2\n        /* \"#utility.yul\":945:985   */\n      add\n        /* \"#utility.yul\":1087:1093   */\n      dup2\n        /* \"#utility.yul\":1075:1085   */\n      dup2\n        /* \"#utility.yul\":1072:1094   */\n      lt\n        /* \"#utility.yul\":1051:1069   */\n      0xffffffffffffffff\n        /* \"#utility.yul\":1039:1049   */\n      dup3\n        /* \"#utility.yul\":1036:1070   */\n      gt\n        /* \"#utility.yul\":1033:1095   */\n      or\n        /* \"#utility.yul\":1030:1118   */\n      iszero\n      tag_79\n      jumpi\n        /* \"#utility.yul\":1098:1116   */\n      tag_80\n      tag_39\n      jump\t// in\n    tag_80:\n        /* \"#utility.yul\":1030:1118   */\n    tag_79:\n        /* \"#utility.yul\":1138:1148   */\n      dup1\n        /* \"#utility.yul\":1134:1136   */\n      0x40\n        /* \"#utility.yul\":1127:1149   */\n      mstore\n        /* \"#utility.yul\":917:1155   */\n      pop\n        /* \"#utility.yul\":874:1155   */\n      pop\n      pop\n      jump\t// out\n        /* \"#utility.yul\":1161:1290   */\n    tag_41:\n        /* \"#utility.yul\":1195:1201   */\n      0x00\n        /* \"#utility.yul\":1222:1242   */\n      tag_82\n      tag_33\n      jump\t// in\n    tag_82:\n        /* \"#utility.yul\":1212:1242   */\n      swap1\n      pop\n        /* \"#utility.yul\":1251:1284   */\n      tag_83\n        /* \"#utility.yul\":1279:1283   */\n      dup3\n        /* \"#utility.yul\":1271:1277   */\n      dup3\n        /* \"#utility.yul\":1251:1284   */\n      tag_40\n      jump\t// in\n    tag_83:\n        /* \"#utility.yul\":1161:1290   */\n      swap2\n      swap1\n      pop\n      jump\t// out\n        /* \"#utility.yul\":1296:1604   */\n    tag_42:\n        /* \"#utility.yul\":1358:1362   */\n      0x00\n        /* \"#utility.yul\":1448:1466   */\n      0xffffffffffffffff\n        /* \"#utility.yul\":1440:1446   */\n      dup3\n        /* \"#utility.yul\":1437:1467   */\n      gt\n        /* \"#utility.yul\":1434:1490   */\n      iszero\n      tag_85\n      jumpi\n        /* \"#utility.yul\":1470:1488   */\n      tag_86\n      tag_39\n      jump\t// in\n    tag_86:\n        /* \"#utility.yul\":1434:1490   */\n    tag_85:\n        /* \"#utility.yul\":1508:1537   */\n      tag_87\n        /* \"#utility.yul\":1530:1536   */\n      dup3\n        /* \"#utility.yul\":1508:1537   */\n      tag_38\n      jump\t// in\n    tag_87:\n        /* \"#utility.yul\":1500:1537   */\n      swap1\n      pop\n        /* \"#utility.yul\":1592:1596   */\n      0x20\n        /* \"#utility.yul\":1586:1590   */\n      dup2\n        /* \"#utility.yul\":1582:1597   */\n      add\n        /* \"#utility.yul\":1574:1597   */\n      swap1\n      pop\n        /* \"#utility.yul\":1296:1604   */\n      swap2\n      swap1\n      pop\n      jump\t// out\n        /* \"#utility.yul\":1610:1758   */\n    tag_43:\n        /* \"#utility.yul\":1708:1714   */\n      dup3\n        /* \"#utility.yul\":1703:1706   */\n      dup2\n        /* \"#utility.yul\":1698:1701   */\n      dup4\n        /* \"#utility.yul\":1685:1715   */\n      calldatacopy\n        /* \"#utility.yul\":1749:1750   */\n      0x00\n        /* \"#utility.yul\":1740:1746   */\n      dup4\n        /* \"#utility.yul\":1735:1738   */\n      dup4\n        /* \"#utility.yul\":1731:1747   */\n      add\n        /* \"#utility.yul\":1724:1751   */\n      mstore\n        /* \"#utility.yul\":1610:1758   */\n      pop\n      pop\n      pop\n      jump\t// out\n        /* \"#utility.yul\":1764:2189   */\n    tag_44:\n        /* \"#utility.yul\":1842:1847   */\n      0x00\n        /* \"#utility.yul\":1867:1933   */\n      tag_90\n        /* \"#utility.yul\":1883:1932   */\n      tag_91\n        /* \"#utility.yul\":1925:1931   */\n      dup5\n        /* \"#utility.yul\":1883:1932   */\n      tag_42\n      jump\t// in\n    tag_91:\n        /* \"#utility.yul\":1867:1933   */\n      tag_41\n      jump\t// in\n    tag_90:\n        /* \"#utility.yul\":1858:1933   */\n      swap1\n      pop\n        /* \"#utility.yul\":1956:1962   */\n      dup3\n        /* \"#utility.yul\":1949:1954   */\n      dup2\n        /* \"#utility.yul\":1942:1963   */\n      mstore\n        /* \"#utility.yul\":1994:1998   */\n      0x20\n        /* \"#utility.yul\":1987:1992   */\n      dup2\n        /* \"#utility.yul\":1983:1999   */\n      add\n        /* \"#utility.yul\":2032:2035   */\n      dup5\n        /* \"#utility.yul\":2023:2029   */\n      dup5\n        /* \"#utility.yul\":2018:2021   */\n      dup5\n        /* \"#utility.yul\":2014:2030   */\n      add\n        /* \"#utility.yul\":2011:2036   */\n      gt\n        /* \"#utility.yul\":2008:2120   */\n      iszero\n      tag_92\n      jumpi\n        /* \"#utility.yul\":2039:2118   */\n      tag_93\n      tag_37\n      jump\t// in\n    tag_93:\n        /* \"#utility.yul\":2008:2120   */\n    tag_92:\n        /* \"#utility.yul\":2129:2183   */\n      tag_94\n        /* \"#utility.yul\":2176:2182   */\n      dup5\n        /* \"#utility.yul\":2171:2174   */\n      dup3\n        /* \"#utility.yul\":2166:2169   */\n      dup6\n        /* \"#utility.yul\":2129:2183   */\n      tag_43\n      jump\t// in\n    tag_94:\n        /* \"#utility.yul\":1848:2189   */\n      pop\n        /* \"#utility.yul\":1764:2189   */\n      swap4\n      swap3\n      pop\n      pop\n      pop\n      jump\t// out\n        /* \"#utility.yul\":2209:2549   */\n    tag_45:\n        /* \"#utility.yul\":2265:2270   */\n      0x00\n        /* \"#utility.yul\":2314:2317   */\n      dup3\n        /* \"#utility.yul\":2307:2311   */\n      0x1f\n        /* \"#utility.yul\":2299:2305   */\n      dup4\n        /* \"#utility.yul\":2295:2312   */\n      add\n        /* \"#utility.yul\":2291:2318   */\n      slt\n        /* \"#utility.yul\":2281:2403   */\n      tag_96\n      jumpi\n        /* \"#utility.yul\":2322:2401   */\n      tag_97\n      tag_36\n      jump\t// in\n    tag_97:\n        /* \"#utility.yul\":2281:2403   */\n    tag_96:\n        /* \"#utility.yul\":2439:2445   */\n      dup2\n        /* \"#utility.yul\":2426:2446   */\n      calldataload\n        /* \"#utility.yul\":2464:2543   */\n      tag_98\n        /* \"#utility.yul\":2539:2542   */\n      dup5\n        /* \"#utility.yul\":2531:2537   */\n      dup3\n        /* \"#utility.yul\":2524:2528   */\n      0x20\n        /* \"#utility.yul\":2516:2522   */\n      dup7\n        /* \"#utility.yul\":2512:2529   */\n      add\n        /* \"#utility.yul\":2464:2543   */\n      tag_44\n      jump\t// in\n    tag_98:\n        /* \"#utility.yul\":2455:2543   */\n      swap2\n      pop\n        /* \"#utility.yul\":2271:2549   */\n      pop\n        /* \"#utility.yul\":2209:2549   */\n      swap3\n      swap2\n      pop\n      pop\n      jump\t// out\n        /* \"#utility.yul\":2555:3064   */\n    tag_9:\n        /* \"#utility.yul\":2624:2630   */\n      0x00\n        /* \"#utility.yul\":2673:2675   */\n      0x20\n        /* \"#utility.yul\":2661:2670   */\n      dup3\n        /* \"#utility.yul\":2652:2659   */\n      dup5\n        /* \"#utility.yul\":2648:2671   */\n      sub\n        /* \"#utility.yul\":2644:2676   */\n      slt\n        /* \"#utility.yul\":2641:2760   */\n      iszero\n      tag_100\n      jumpi\n        /* \"#utility.yul\":2679:2758   */\n      tag_101\n      tag_34\n      jump\t// in\n    tag_101:\n        /* \"#utility.yul\":2641:2760   */\n    tag_100:\n        /* \"#utility.yul\":2827:2828   */\n      0x00\n        /* \"#utility.yul\":2816:2825   */\n      dup3\n        /* \"#utility.yul\":2812:2829   */\n      add\n        /* \"#utility.yul\":2799:2830   */\n      calldataload\n        /* \"#utility.yul\":2857:2875   */\n      0xffffffffffffffff\n        /* \"#utility.yul\":2849:2855   */\n      dup2\n        /* \"#utility.yul\":2846:2876   */\n      gt\n        /* \"#utility.yul\":2843:2960   */\n      iszero\n      tag_102\n      jumpi\n        /* \"#utility.yul\":2879:2958   */\n      tag_103\n      tag_35\n      jump\t// in\n    tag_103:\n        /* \"#utility.yul\":2843:2960   */\n    tag_102:\n        /* \"#utility.yul\":2984:3047   */\n      tag_104\n        /* \"#utility.yul\":3039:3046   */\n      dup5\n        /* \"#utility.yul\":3030:3036   */\n      dup3\n        /* \"#utility.yul\":3019:3028   */\n      dup6\n        /* \"#utility.yul\":3015:3037   */\n      add\n        /* \"#utility.yul\":2984:3047   */\n      tag_45\n      jump\t// in\n    tag_104:\n        /* \"#utility.yul\":2974:3047   */\n      swap2\n      pop\n        /* \"#utility.yul\":2770:3057   */\n      pop\n        /* \"#utility.yul\":2555:3064   */\n      swap3\n      swap2\n      pop\n      pop\n      jump\t// out\n        /* \"#utility.yul\":3070:3147   */\n    tag_46:\n        /* \"#utility.yul\":3107:3114   */\n      0x00\n        /* \"#utility.yul\":3136:3141   */\n      dup2\n        /* \"#utility.yul\":3125:3141   */\n      swap1\n      pop\n        /* \"#utility.yul\":3070:3147   */\n      swap2\n      swap1\n      pop\n      jump\t// out\n        /* \"#utility.yul\":3153:3271   */\n    tag_47:\n        /* \"#utility.yul\":3240:3264   */\n      tag_107\n        /* \"#utility.yul\":3258:3263   */\n      dup2\n        /* \"#utility.yul\":3240:3264   */\n      tag_46\n      jump\t// in\n    tag_107:\n        /* \"#utility.yul\":3235:3238   */\n      dup3\n        /* \"#utility.yul\":3228:3265   */\n      mstore\n        /* \"#utility.yul\":3153:3271   */\n      pop\n      pop\n      jump\t// out\n        /* \"#utility.yul\":3277:3499   */\n    tag_16:\n        /* \"#utility.yul\":3370:3374   */\n      0x00\n        /* \"#utility.yul\":3408:3410   */\n      0x20\n        /* \"#utility.yul\":3397:3406   */\n      dup3\n        /* \"#utility.yul\":3393:3411   */\n      add\n        /* \"#utility.yul\":3385:3411   */\n      swap1\n      pop\n        /* \"#utility.yul\":3421:3492   */\n      tag_109\n        /* \"#utility.yul\":3489:3490   */\n      0x00\n        /* \"#utility.yul\":3478:3487   */\n      dup4\n        /* \"#utility.yul\":3474:3491   */\n      add\n        /* \"#utility.yul\":3465:3471   */\n      dup5\n        /* \"#utility.yul\":3421:3492   */\n      tag_47\n      jump\t// in\n    tag_109:\n        /* \"#utility.yul\":3277:3499   */\n      swap3\n      swap2\n      pop\n      pop\n      jump\t// out\n        /* \"#utility.yul\":3505:3604   */\n    tag_48:\n        /* \"#utility.yul\":3557:3563   */\n      0x00\n        /* \"#utility.yul\":3591:3596   */\n      dup2\n        /* \"#utility.yul\":3585:3597   */\n      mload\n        /* \"#utility.yul\":3575:3597   */\n      swap1\n      pop\n        /* \"#utility.yul\":3505:3604   */\n      swap2\n      swap1\n      pop\n      jump\t// out\n        /* \"#utility.yul\":3610:3779   */\n    tag_49:\n        /* \"#utility.yul\":3694:3705   */\n      0x00\n        /* \"#utility.yul\":3728:3734   */\n      dup3\n        /* \"#utility.yul\":3723:3726   */\n      dup3\n        /* \"#utility.yul\":3716:3735   */\n      mstore\n        /* \"#utility.yul\":3768:3772   */\n      0x20\n        /* \"#utility.yul\":3763:3766   */\n      dup3\n        /* \"#utility.yul\":3759:3773   */\n      add\n        /* \"#utility.yul\":3744:3773   */\n      swap1\n      pop\n        /* \"#utility.yul\":3610:3779   */\n      swap3\n      swap2\n      pop\n      pop\n      jump\t// out\n        /* \"#utility.yul\":3785:3924   */\n    tag_50:\n        /* \"#utility.yul\":3874:3880   */\n      dup3\n        /* \"#utility.yul\":3869:3872   */\n      dup2\n        /* \"#utility.yul\":3864:3867   */\n      dup4\n        /* \"#utility.yul\":3858:3881   */\n      mcopy\n        /* \"#utility.yul\":3915:3916   */\n      0x00\n        /* \"#utility.yul\":3906:3912   */\n      dup4\n        /* \"#utility.yul\":3901:3904   */\n      dup4\n        /* \"#utility.yul\":3897:3913   */\n      add\n        /* \"#utility.yul\":3890:3917   */\n      mstore\n        /* \"#utility.yul\":3785:3924   */\n      pop\n      pop\n      pop\n      jump\t// out\n        /* \"#utility.yul\":3930:4307   */\n    tag_51:\n        /* \"#utility.yul\":4018:4021   */\n      0x00\n        /* \"#utility.yul\":4046:4085   */\n      tag_114\n        /* \"#utility.yul\":4079:4084   */\n      dup3\n        /* \"#utility.yul\":4046:4085   */\n      tag_48\n      jump\t// in\n    tag_114:\n        /* \"#utility.yul\":4101:4172   */\n      tag_115\n        /* \"#utility.yul\":4165:4171   */\n      dup2\n        /* \"#utility.yul\":4160:4163   */\n      dup6\n        /* \"#utility.yul\":4101:4172   */\n      tag_49\n      jump\t// in\n    tag_115:\n        /* \"#utility.yul\":4094:4172   */\n      swap4\n      pop\n        /* \"#utility.yul\":4181:4246   */\n      tag_116\n        /* \"#utility.yul\":4239:4245   */\n      dup2\n        /* \"#utility.yul\":4234:4237   */\n      dup6\n        /* \"#utility.yul\":4227:4231   */\n      0x20\n        /* \"#utility.yul\":4220:4225   */\n      dup7\n        /* \"#utility.yul\":4216:4232   */\n      add\n        /* \"#utility.yul\":4181:4246   */\n      tag_50\n      jump\t// in\n    tag_116:\n        /* \"#utility.yul\":4271:4300   */\n      tag_117\n        /* \"#utility.yul\":4293:4299   */\n      dup2\n        /* \"#utility.yul\":4271:4300   */\n      tag_38\n      jump\t// in\n    tag_117:\n        /* \"#utility.yul\":4266:4269   */\n      dup5\n        /* \"#utility.yul\":4262:4301   */\n      add\n        /* \"#utility.yul\":4255:4301   */\n      swap2\n      pop\n        /* \"#utility.yul\":4022:4307   */\n      pop\n        /* \"#utility.yul\":3930:4307   */\n      swap3\n      swap2\n      pop\n      pop\n      jump\t// out\n        /* \"#utility.yul\":4313:4626   */\n    tag_20:\n        /* \"#utility.yul\":4426:4430   */\n      0x00\n        /* \"#utility.yul\":4464:4466   */\n      0x20\n        /* \"#utility.yul\":4453:4462   */\n      dup3\n        /* \"#utility.yul\":4449:4467   */\n      add\n        /* \"#utility.yul\":4441:4467   */\n      swap1\n      pop\n        /* \"#utility.yul\":4513:4522   */\n      dup2\n        /* \"#utility.yul\":4507:4511   */\n      dup2\n        /* \"#utility.yul\":4503:4523   */\n      sub\n        /* \"#utility.yul\":4499:4500   */\n      0x00\n        /* \"#utility.yul\":4488:4497   */\n      dup4\n        /* \"#utility.yul\":4484:4501   */\n      add\n        /* \"#utility.yul\":4477:4524   */\n      mstore\n        /* \"#utility.yul\":4541:4619   */\n      tag_119\n        /* \"#utility.yul\":4614:4618   */\n      dup2\n        /* \"#utility.yul\":4605:4611   */\n      dup5\n        /* \"#utility.yul\":4541:4619   */\n      tag_51\n      jump\t// in\n    tag_119:\n        /* \"#utility.yul\":4533:4619   */\n      swap1\n      pop\n        /* \"#utility.yul\":4313:4626   */\n      swap3\n      swap2\n      pop\n      pop\n      jump\t// out\n        /* \"#utility.yul\":4632:4812   */\n    tag_52:\n        /* \"#utility.yul\":4680:4757   */\n      0x4e487b7100000000000000000000000000000000000000000000000000000000\n        /* \"#utility.yul\":4677:4678   */\n      0x00\n        /* \"#utility.yul\":4670:4758   */\n      mstore\n        /* \"#utility.yul\":4777:4781   */\n      0x22\n        /* \"#utility.yul\":4774:4775   */\n      0x04\n        /* \"#utility.yul\":4767:4782   */\n      mstore\n        /* \"#utility.yul\":4801:4805   */\n      0x24\n        /* \"#utility.yul\":4798:4799   */\n      0x00\n        /* \"#utility.yul\":4791:4806   */\n      revert\n        /* \"#utility.yul\":4818:5138   */\n    tag_28:\n        /* \"#utility.yul\":4862:4868   */\n      0x00\n        /* \"#utility.yul\":4899:4900   */\n      0x02\n        /* \"#utility.yul\":4893:4897   */\n      dup3\n        /* \"#utility.yul\":4889:4901   */\n      div\n        /* \"#utility.yul\":4879:4901   */\n      swap1\n      pop\n        /* \"#utility.yul\":4946:4947   */\n      0x01\n        /* \"#utility.yul\":4940:4944   */\n      dup3\n        /* \"#utility.yul\":4936:4948   */\n      and\n        /* \"#utility.yul\":4967:4985   */\n      dup1\n        /* \"#utility.yul\":4957:5038   */\n      tag_122\n      jumpi\n        /* \"#utility.yul\":5023:5027   */\n      0x7f\n        /* \"#utility.yul\":5015:5021   */\n      dup3\n        /* \"#utility.yul\":5011:5028   */\n      and\n        /* \"#utility.yul\":5001:5028   */\n      swap2\n      pop\n        /* \"#utility.yul\":4957:5038   */\n    tag_122:\n        /* \"#utility.yul\":5085:5087   */\n      0x20\n        /* \"#utility.yul\":5077:5083   */\n      dup3\n        /* \"#utility.yul\":5074:5088   */\n      lt\n        /* \"#utility.yul\":5054:5072   */\n      dup2\n        /* \"#utility.yul\":5051:5089   */\n      sub\n        /* \"#utility.yul\":5048:5132   */\n      tag_123\n      jumpi\n        /* \"#utility.yul\":5104:5122   */\n      tag_124\n      tag_52\n      jump\t// in\n    tag_124:\n        /* \"#utility.yul\":5048:5132   */\n    tag_123:\n        /* \"#utility.yul\":4869:5138   */\n      pop\n        /* \"#utility.yul\":4818:5138   */\n      swap2\n      swap1\n      pop\n      jump\t// out\n        /* \"#utility.yul\":5144:5285   */\n    tag_53:\n        /* \"#utility.yul\":5193:5197   */\n      0x00\n        /* \"#utility.yul\":5216:5219   */\n      dup2\n        /* \"#utility.yul\":5208:5219   */\n      swap1\n      pop\n        /* \"#utility.yul\":5239:5242   */\n      dup2\n        /* \"#utility.yul\":5236:5237   */\n      0x00\n        /* \"#utility.yul\":5229:5243   */\n      mstore\n        /* \"#utility.yul\":5273:5277   */\n      0x20\n        /* \"#utility.yul\":5270:5271   */\n      0x00\n        /* \"#utility.yul\":5260:5278   */\n      keccak256\n        /* \"#utility.yul\":5252:5278   */\n      swap1\n      pop\n        /* \"#utility.yul\":5144:5285   */\n      swap2\n      swap1\n      pop\n      jump\t// out\n        /* \"#utility.yul\":5291:5384   */\n    tag_54:\n        /* \"#utility.yul\":5328:5334   */\n      0x00\n        /* \"#utility.yul\":5375:5377   */\n      0x20\n        /* \"#utility.yul\":5370:5372   */\n      0x1f\n        /* \"#utility.yul\":5363:5368   */\n      dup4\n        /* \"#utility.yul\":5359:5373   */\n      add\n        /* \"#utility.yul\":5355:5378   */\n      div\n        /* \"#utility.yul\":5345:5378   */\n      swap1\n      pop\n        /* \"#utility.yul\":5291:5384   */\n      swap2\n      swap1\n      pop\n      jump\t// out\n        /* \"#utility.yul\":5390:5497   */\n    tag_55:\n        /* \"#utility.yul\":5434:5442   */\n      0x00\n        /* \"#utility.yul\":5484:5489   */\n      dup3\n        /* \"#utility.yul\":5478:5482   */\n      dup3\n        /* \"#utility.yul\":5474:5490   */\n      shl\n        /* \"#utility.yul\":5453:5490   */\n      swap1\n      pop\n        /* \"#utility.yul\":5390:5497   */\n      swap3\n      swap2\n      pop\n      pop\n      jump\t// out\n        /* \"#utility.yul\":5503:5896   */\n    tag_56:\n        /* \"#utility.yul\":5572:5578   */\n      0x00\n        /* \"#utility.yul\":5622:5623   */\n      0x08\n        /* \"#utility.yul\":5610:5620   */\n      dup4\n        /* \"#utility.yul\":5606:5624   */\n      mul\n        /* \"#utility.yul\":5645:5742   */\n      tag_129\n        /* \"#utility.yul\":5675:5741   */\n      0xffffffffffffffffffffffffffffffffffffffffffffffffffffffffffffffff\n        /* \"#utility.yul\":5664:5673   */\n      dup3\n        /* \"#utility.yul\":5645:5742   */\n      tag_55\n      jump\t// in\n    tag_129:\n        /* \"#utility.yul\":5763:5802   */\n      tag_130\n        /* \"#utility.yul\":5793:5801   */\n      dup7\n        /* \"#utility.yul\":5782:5791   */\n      dup4\n        /* \"#utility.yul\":5763:5802   */\n      tag_55\n      jump\t// in\n    tag_130:\n        /* \"#utility.yul\":5751:5802   */\n      swap6\n      pop\n        /* \"#utility.yul\":5835:5839   */\n      dup1\n        /* \"#utility.yul\":5831:5840   */\n      not\n        /* \"#utility.yul\":5824:5829   */\n      dup5\n        /* \"#utility.yul\":5820:5841   */\n      and\n        /* \"#utility.yul\":5811:5841   */\n      swap4\n      pop\n        /* \"#utility.yul\":5884:5888   */\n      dup1\n        /* \"#utility.yul\":5874:5882   */\n      dup7\n        /* \"#utility.yul\":5870:5889   */\n      and\n        /* \"#utility.yul\":5863:5868   */\n      dup5\n        /* \"#utility.yul\":5860:5890   */\n      or\n        /* \"#utility.yul\":5850:5890   */\n      swap3\n      pop\n        /* \"#utility.yul\":5579:5896   */\n      pop\n      pop\n        /* \"#utility.yul\":5503:5896   */\n      swap4\n      swap3\n      pop\n      pop\n      pop\n      jump\t// out\n        /* \"#utility.yul\":5902:5962   */\n    tag_57:\n        /* \"#utility.yul\":5930:5933   */\n      0x00\n        /* \"#utility.yul\":5951:5956   */\n      dup2\n        /* \"#utility.yul\":5944:5956   */\n      swap1\n      pop\n        /* \"#utility.yul\":5902:5962   */\n      swap2\n      swap1\n      pop\n      jump\t// out\n        /* \"#utility.yul\":5968:6110   */\n    tag_58:\n        /* \"#utility.yul\":6018:6027   */\n      0x00\n        /* \"#utility.yul\":6051:6104   */\n      tag_133\n        /* \"#utility.yul\":6069:6103   */\n      tag_134\n        /* \"#utility.yul\":6078:6102   */\n      tag_135\n        /* \"#utility.yul\":6096:6101   */\n      dup5\n        /* \"#utility.yul\":6078:6102   */\n      tag_46\n      jump\t// in\n    tag_135:\n        /* \"#utility.yul\":6069:6103   */\n      tag_57\n      jump\t// in\n    tag_134:\n        /* \"#utility.yul\":6051:6104   */\n      tag_46\n      jump\t// in\n    tag_133:\n        /* \"#utility.yul\":6038:6104   */\n      swap1\n      pop\n        /* \"#utility.yul\":5968:6110   */\n      swap2\n      swap1\n      pop\n      jump\t// out\n        /* \"#utility.yul\":6116:6191   */\n    tag_59:\n        /* \"#utility.yul\":6159:6162   */\n      0x00\n        /* \"#utility.yul\":6180:6185   */\n      dup2\n        /* \"#utility.yul\":6173:6185   */\n      swap1\n      pop\n        /* \"#utility.yul\":6116:6191   */\n      swap2\n      swap1\n      pop\n      jump\t// out\n        /* \"#utility.yul\":6197:6466   */\n    tag_60:\n        /* \"#utility.yul\":6307:6346   */\n      tag_138\n        /* \"#utility.yul\":6338:6345   */\n      dup4\n        /* \"#utility.yul\":6307:6346   */\n      tag_58\n      jump\t// in\n    tag_138:\n        /* \"#utility.yul\":6368:6459   */\n      tag_139\n        /* \"#utility.yul\":6417:6458   */\n      tag_140\n        /* \"#utility.yul\":6441:6457   */\n      dup3\n        /* \"#utility.yul\":6417:6458   */\n      tag_59\n      jump\t// in\n    tag_140:\n        /* \"#utility.yul\":6409:6415   */\n      dup5\n        /* \"#utility.yul\":6402:6406   */\n      dup5\n        /* \"#utility.yul\":6396:6407   */\n      sload\n        /* \"#utility.yul\":6368:6459   */\n      tag_56\n      jump\t// in\n    tag_139:\n        /* \"#utility.yul\":6362:6366   */\n      dup3\n        /* \"#utility.yul\":6355:6460   */\n      sstore\n        /* \"#utility.yul\":6273:6466   */\n      pop\n        /* \"#utility.yul\":6197:6466   */\n      pop\n      pop\n      pop\n      jump\t// out\n        /* \"#utility.yul\":6472:6545   */\n    tag_61:\n        /* \"#utility.yul\":6517:6520   */\n      0x00\n        /* \"#utility.yul\":6538:6539   */\n      0x00\n        /* \"#utility.yul\":6531:6539   */\n      swap1\n      pop\n        /* \"#utility.yul\":6472:6545   */\n      swap1\n      jump\t// out\n        /* \"#utility.yul\":6551:6740   */\n    tag_62:\n        /* \"#utility.yul\":6628:6660   */\n      tag_143\n      tag_61\n      jump\t// in\n    tag_143:\n        /* \"#utility.yul\":6669:6734   */\n      tag_144\n        /* \"#utility.yul\":6727:6733   */\n      dup2\n        /* \"#utility.yul\":6719:6725   */\n      dup5\n        /* \"#utility.yul\":6713:6717   */\n      dup5\n        /* \"#utility.yul\":6669:6734   */\n      tag_60\n      jump\t// in\n    tag_144:\n        /* \"#utility.yul\":6604:6740   */\n      pop\n        /* \"#utility.yul\":6551:6740   */\n      pop\n      pop\n      jump\t// out\n        /* \"#utility.yul\":6746:6932   */\n    tag_63:\n        /* \"#utility.yul\":6806:6926   */\n    tag_146:\n        /* \"#utility.yul\":6823:6826   */\n      dup2\n        /* \"#utility.yul\":6816:6821   */\n      dup2\n        /* \"#utility.yul\":6813:6827   */\n      lt\n        /* \"#utility.yul\":6806:6926   */\n      iszero\n      tag_148\n      jumpi\n        /* \"#utility.yul\":6877:6916   */\n      tag_149\n        /* \"#utility.yul\":6914:6915   */\n      0x00\n        /* \"#utility.yul\":6907:6912   */\n      dup3\n        /* \"#utility.yul\":6877:6916   */\n      tag_62\n      jump\t// in\n    tag_149:\n        /* \"#utility.yul\":6850:6851   */\n      0x01\n        /* \"#utility.yul\":6843:6848   */\n      dup2\n        /* \"#utility.yul\":6839:6852   */\n      add\n        /* \"#utility.yul\":6830:6852   */\n      swap1\n      pop\n        /* \"#utility.yul\":6806:6926   */\n      jump(tag_146)\n    tag_148:\n        /* \"#utility.yul\":6746:6932   */\n      pop\n      pop\n      jump\t// out\n        /* \"#utility.yul\":6938:7481   */\n    tag_64:\n        /* \"#utility.yul\":7039:7041   */\n      0x1f\n        /* \"#utility.yul\":7034:7037   */\n      dup3\n        /* \"#utility.yul\":7031:7042   */\n      gt\n        /* \"#utility.yul\":7028:7474   */\n      iszero\n      tag_151\n      jumpi\n        /* \"#utility.yul\":7073:7111   */\n      tag_152\n        /* \"#utility.yul\":7105:7110   */\n      dup2\n        /* \"#utility.yul\":7073:7111   */\n      tag_53\n      jump\t// in\n    tag_152:\n        /* \"#utility.yul\":7157:7186   */\n      tag_153\n        /* \"#utility.yul\":7175:7185   */\n      dup5\n        /* \"#utility.yul\":7157:7186   */\n      tag_54\n      jump\t// in\n    tag_153:\n        /* \"#utility.yul\":7147:7155   */\n      dup2\n        /* \"#utility.yul\":7143:7187   */\n      add\n        /* \"#utility.yul\":7340:7342   */\n      0x20\n        /* \"#utility.yul\":7328:7338   */\n      dup6\n        /* \"#utility.yul\":7325:7343   */\n      lt\n        /* \"#utility.yul\":7322:7371   */\n      iszero\n      tag_154\n      jumpi\n        /* \"#utility.yul\":7361:7369   */\n      dup2\n        /* \"#utility.yul\":7346:7369   */\n      swap1\n      pop\n        /* \"#utility.yul\":7322:7371   */\n    tag_154:\n        /* \"#utility.yul\":7384:7464   */\n      tag_155\n        /* \"#utility.yul\":7440:7462   */\n      tag_156\n        /* \"#utility.yul\":7458:7461   */\n      dup6\n        /* \"#utility.yul\":7440:7462   */\n      tag_54\n      jump\t// in\n    tag_156:\n        /* \"#utility.yul\":7430:7438   */\n      dup4\n        /* \"#utility.yul\":7426:7463   */\n      add\n        /* \"#utility.yul\":7413:7424   */\n      dup3\n        /* \"#utility.yul\":7384:7464   */\n      tag_63\n      jump\t// in\n    tag_155:\n        /* \"#utility.yul\":7043:7474   */\n      pop\n      pop\n        /* \"#utility.yul\":7028:7474   */\n    tag_151:\n        /* \"#utility.yul\":6938:7481   */\n      pop\n      pop\n      pop\n      jump\t// out\n        /* \"#utility.yul\":7487:7604   */\n    tag_65:\n        /* \"#utility.yul\":7541:7549   */\n      0x00\n        /* \"#utility.yul\":7591:7596   */\n      dup3\n        /* \"#utility.yul\":7585:7589   */\n      dup3\n        /* \"#utility.yul\":7581:7597   */\n      shr\n        /* \"#utility.yul\":7560:7597   */\n      swap1\n      pop\n        /* \"#utility.yul\":7487:7604   */\n      swap3\n      swap2\n      pop\n      pop\n      jump\t// out\n        /* \"#utility.yul\":7610:7779   */\n    tag_66:\n        /* \"#utility.yul\":7654:7660   */\n      0x00\n        /* \"#utility.yul\":7687:7738   */\n      tag_159\n        /* \"#utility.yul\":7735:7736   */\n      0x00\n        /* \"#utility.yul\":7731:7737   */\n      not\n        /* \"#utility.yul\":7723:7728   */\n      dup5\n        /* \"#utility.yul\":7720:7721   */\n      0x08\n        /* \"#utility.yul\":7716:7729   */\n      mul\n        /* \"#utility.yul\":7687:7738   */\n      tag_65\n      jump\t// in\n    tag_159:\n        /* \"#utility.yul\":7683:7739   */\n      not\n        /* \"#utility.yul\":7768:7772   */\n      dup1\n        /* \"#utility.yul\":7762:7766   */\n      dup4\n        /* \"#utility.yul\":7758:7773   */\n      and\n        /* \"#utility.yul\":7748:7773   */\n      swap2\n      pop\n        /* \"#utility.yul\":7661:7779   */\n      pop\n        /* \"#utility.yul\":7610:7779   */\n      swap3\n      swap2\n      pop\n      pop\n      jump\t// out\n        /* \"#utility.yul\":7784:8079   */\n    tag_67:\n        /* \"#utility.yul\":7860:7864   */\n      0x00\n        /* \"#utility.yul\":8006:8035   */\n      tag_161\n        /* \"#utility.yul\":8031:8034   */\n      dup4\n        /* \"#utility.yul\":8025:8029   */\n      dup4\n        /* \"#utility.yul\":8006:8035   */\n      tag_66\n      jump\t// in\n    tag_161:\n        /* \"#utility.yul\":7998:8035   */\n      swap2\n      pop\n        /* \"#utility.yul\":8068:8071   */\n      dup3\n        /* \"#utility.yul\":8065:8066   */\n      0x02\n        /* \"#utility.yul\":8061:8072   */\n      mul\n        /* \"#utility.yul\":8055:8059   */\n      dup3\n        /* \"#utility.yul\":8052:8073   */\n      or\n        /* \"#utility.yul\":8044:8073   */\n      swap1\n      pop\n        /* \"#utility.yul\":7784:8079   */\n      swap3\n      swap2\n      pop\n      pop\n      jump\t// out\n        /* \"#utility.yul\":8084:9479   */\n    tag_23:\n        /* \"#utility.yul\":8201:8238   */\n      tag_163\n        /* \"#utility.yul\":8234:8237   */\n      dup3\n        /* \"#utility.yul\":8201:8238   */\n      tag_48\n      jump\t// in\n    tag_163:\n        /* \"#utility.yul\":8303:8321   */\n      0xffffffffffffffff\n        /* \"#utility.yul\":8295:8301   */\n      dup2\n        /* \"#utility.yul\":8292:8322   */\n      gt\n        /* \"#utility.yul\":8289:8345   */\n      iszero\n      tag_164\n      jumpi\n        /* \"#utility.yul\":8325:8343   */\n      tag_165\n      tag_39\n      jump\t// in\n    tag_165:\n        /* \"#utility.yul\":8289:8345   */\n    tag_164:\n        /* \"#utility.yul\":8369:8407   */\n      tag_166\n        /* \"#utility.yul\":8401:8405   */\n      dup3\n        /* \"#utility.yul\":8395:8406   */\n      sload\n        /* \"#utility.yul\":8369:8407   */\n      tag_28\n      jump\t// in\n    tag_166:\n        /* \"#utility.yul\":8454:8521   */\n      tag_167\n        /* \"#utility.yul\":8514:8520   */\n      dup3\n        /* \"#utility.yul\":8506:8512   */\n      dup3\n        /* \"#utility.yul\":8500:8504   */\n      dup6\n        /* \"#utility.yul\":8454:8521   */\n      tag_64\n      jump\t// in\n    tag_167:\n        /* \"#utility.yul\":8548:8549   */\n      0x00\n        /* \"#utility.yul\":8572:8576   */\n      0x20\n        /* \"#utility.yul\":8559:8576   */\n      swap1\n      pop\n        /* \"#utility.yul\":8604:8606   */\n      0x1f\n        /* \"#utility.yul\":8596:8602   */\n      dup4\n        /* \"#utility.yul\":8593:8607   */\n      gt\n        /* \"#utility.yul\":8621:8622   */\n      0x01\n        /* \"#utility.yul\":8616:9234   */\n      dup2\n      eq\n      tag_169\n      jumpi\n        /* \"#utility.yul\":9278:9279   */\n      0x00\n        /* \"#utility.yul\":9295:9301   */\n      dup5\n        /* \"#utility.yul\":9292:9369   */\n      iszero\n      tag_170\n      jumpi\n        /* \"#utility.yul\":9344:9353   */\n      dup3\n        /* \"#utility.yul\":9339:9342   */\n      dup8\n        /* \"#utility.yul\":9335:9354   */\n      add\n        /* \"#utility.yul\":9329:9355   */\n      mload\n        /* \"#utility.yul\":9320:9355   */\n      swap1\n      pop\n        /* \"#utility.yul\":9292:9369   */\n    tag_170:\n        /* \"#utility.yul\":9395:9462   */\n      tag_171\n        /* \"#utility.yul\":9455:9461   */\n      dup6\n        /* \"#utility.yul\":9448:9453   */\n      dup3\n        /* \"#utility.yul\":9395:9462   */\n      tag_67\n      jump\t// in\n    tag_171:\n        /* \"#utility.yul\":9389:9393   */\n      dup7\n        /* \"#utility.yul\":9382:9463   */\n      sstore\n        /* \"#utility.yul\":9251:9473   */\n      pop\n        /* \"#utility.yul\":8586:9473   */\n      jump(tag_168)\n        /* \"#utility.yul\":8616:9234   */\n    tag_169:\n        /* \"#utility.yul\":8668:8672   */\n      0x1f\n        /* \"#utility.yul\":8664:8673   */\n      not\n        /* \"#utility.yul\":8656:8662   */\n      dup5\n        /* \"#utility.yul\":8652:8674   */\n      and\n        /* \"#utility.yul\":8702:8739   */\n      tag_172\n        /* \"#utility.yul\":8734:8738   */\n      dup7\n        /* \"#utility.yul\":8702:8739   */\n      tag_53\n      jump\t// in\n    tag_172:\n        /* \"#utility.yul\":8761:8762   */\n      0x00\n        /* \"#utility.yul\":8775:8983   */\n    tag_173:\n        /* \"#utility.yul\":8789:8796   */\n      dup3\n        /* \"#utility.yul\":8786:8787   */\n      dup2\n        /* \"#utility.yul\":8783:8797   */\n      lt\n        /* \"#utility.yul\":8775:8983   */\n      iszero\n      tag_175\n      jumpi\n        /* \"#utility.yul\":8868:8877   */\n      dup5\n        /* \"#utility.yul\":8863:8866   */\n      dup10\n        /* \"#utility.yul\":8859:8878   */\n      add\n        /* \"#utility.yul\":8853:8879   */\n      mload\n        /* \"#utility.yul\":8845:8851   */\n      dup3\n        /* \"#utility.yul\":8838:8880   */\n      sstore\n        /* \"#utility.yul\":8919:8920   */\n      0x01\n        /* \"#utility.yul\":8911:8917   */\n      dup3\n        /* \"#utility.yul\":8907:8921   */\n      add\n        /* \"#utility.yul\":8897:8921   */\n      swap2\n      pop\n        /* \"#utility.yul\":8966:8968   */\n      0x20\n        /* \"#utility.yul\":8955:8964   */\n      dup6\n        /* \"#utility.yul\":8951:8969   */\n      add\n        /* \"#utility.yul\":8938:8969   */\n      swap5\n      pop\n        /* \"#utility.yul\":8812:8816   */\n      0x20\n        /* \"#utility.yul\":8809:8810   */\n      dup2\n        /* \"#utility.yul\":8805:8817   */\n      add\n        /* \"#utility.yul\":8800:8817   */\n      swap1\n      pop\n        /* \"#utility.yul\":8775:8983   */\n      jump(tag_173)\n    tag_175:\n        /* \"#utility.yul\":9011:9017   */\n      dup7\n        /* \"#utility.yul\":9002:9009   */\n      dup4\n        /* \"#utility.yul\":8999:9018   */\n      lt\n        /* \"#utility.yul\":8996:9175   */\n      iszero\n      tag_176\n      jumpi\n        /* \"#utility.yul\":9069:9078   */\n      dup5\n        /* \"#utility.yul\":9064:9067   */\n      dup10\n        /* \"#utility.yul\":9060:9079   */\n      add\n        /* \"#utility.yul\":9054:9080   */\n      mload\n        /* \"#utility.yul\":9112:9160   */\n      tag_177\n        /* \"#utility.yul\":9154:9158   */\n      0x1f\n        /* \"#utility.yul\":9146:9152   */\n      dup10\n        /* \"#utility.yul\":9142:9159   */\n      and\n        /* \"#utility.yul\":9131:9140   */\n      dup3\n        /* \"#utility.yul\":9112:9160   */\n      tag_66\n      jump\t// in\n    tag_177:\n        /* \"#utility.yul\":9104:9110   */\n      dup4\n        /* \"#utility.yul\":9097:9161   */\n      sstore\n        /* \"#utility.yul\":9019:9175   */\n      pop\n        /* \"#utility.yul\":8996:9175   */\n    tag_176:\n        /* \"#utility.yul\":9221:9222   */\n      0x01\n        /* \"#utility.yul\":9217:9218   */\n      0x02\n        /* \"#utility.yul\":9209:9215   */\n      dup9\n        /* \"#utility.yul\":9205:9219   */\n      mul\n        /* \"#utility.yul\":9201:9223   */\n      add\n        /* \"#utility.yul\":9195:9199   */\n      dup9\n        /* \"#utility.yul\":9188:9224   */\n      sstore\n        /* \"#utility.yul\":8623:9234   */\n      pop\n      pop\n      pop\n        /* \"#utility.yul\":8586:9473   */\n    tag_168:\n      pop\n        /* \"#utility.yul\":8176:9479   */\n      pop\n      pop\n      pop\n        /* \"#utility.yul\":8084:9479   */\n      pop\n      pop\n      jump\t// out\n        /* \"#utility.yul\":9485:9665   */\n    tag_68:\n        /* \"#utility.yul\":9533:9610   */\n      0x4e487b7100000000000000000000000000000000000000000000000000000000\n        /* \"#utility.yul\":9530:9531   */\n      0x00\n        /* \"#utility.yul\":9523:9611   */\n      mstore\n        /* \"#utility.yul\":9630:9634   */\n      0x11\n        /* \"#utility.yul\":9627:9628   */\n      0x04\n        /* \"#utility.yul\":9620:9635   */\n      mstore\n        /* \"#utility.yul\":9654:9658   */\n      0x24\n        /* \"#utility.yul\":9651:9652   */\n      0x00\n        /* \"#utility.yul\":9644:9659   */\n      revert\n        /* \"#utility.yul\":9671:9862   */\n    tag_26:\n        /* \"#utility.yul\":9711:9714   */\n      0x00\n        /* \"#utility.yul\":9730:9750   */\n      tag_180\n        /* \"#utility.yul\":9748:9749   */\n      dup3\n        /* \"#utility.yul\":9730:9750   */\n      tag_46\n      jump\t// in\n    tag_180:\n        /* \"#utility.yul\":9725:9750   */\n      swap2\n      pop\n        /* \"#utility.yul\":9764:9784   */\n      tag_181\n        /* \"#utility.yul\":9782:9783   */\n      dup4\n        /* \"#utility.yul\":9764:9784   */\n      tag_46\n      jump\t// in\n    tag_181:\n        /* \"#utility.yul\":9759:9784   */\n      swap3\n      pop\n        /* \"#utility.yul\":9807:9808   */\n      dup3\n        /* \"#utility.yul\":9804:9805   */\n      dup3\n        /* \"#utility.yul\":9800:9809   */\n      add\n        /* \"#utility.yul\":9793:9809   */\n      swap1\n      pop\n        /* \"#utility.yul\":9828:9831   */\n      dup1\n        /* \"#utility.yul\":9825:9826   */\n      dup3\n        /* \"#utility.yul\":9822:9832   */\n      gt\n        /* \"#utility.yul\":9819:9855   */\n      iszero\n      tag_182\n      jumpi\n        /* \"#utility.yul\":9835:9853   */\n      tag_183\n      tag_68\n      jump\t// in\n    tag_183:\n        /* \"#utility.yul\":9819:9855   */\n    tag_182:\n        /* \"#utility.yul\":9671:9862   */\n      swap3\n      swap2\n      pop\n      pop\n      jump\t// out\n\n    auxdata: 0xa26469706673582212204d9d406f4240a8d95e9c7585e123b9aae722e5c1e837f68b2b085680f853487d64736f6c634300081f0033\n}\n",
				"bytecode": {
					"linkReferences": {},
					"object": "608060405234801561000f575f5ffd5b50604051610be1380380610be18339818101604052810190610031919061019a565b805f908161003f91906103f1565b505f600181905550506104c0565b5f604051905090565b5f5ffd5b5f5ffd5b5f5ffd5b5f5ffd5b5f601f19601f8301169050919050565b7f4e487b71000000000000000000000000000000000000000000000000000000005f52604160045260245ffd5b6100ac82610066565b810181811067ffffffffffffffff821117156100cb576100ca610076565b5b80604052505050565b5f6100dd61004d565b90506100e982826100a3565b919050565b5f67ffffffffffffffff82111561010857610107610076565b5b61011182610066565b9050602081019050919050565b8281835e5f83830152505050565b5f61013e610139846100ee565b6100d4565b90508281526020810184848401111561015a57610159610062565b5b61016584828561011e565b509392505050565b5f82601f8301126101815761018061005e565b5b815161019184826020860161012c565b91505092915050565b5f602082840312156101af576101ae610056565b5b5f82015167ffffffffffffffff8111156101cc576101cb61005a565b5b6101d88482850161016d565b91505092915050565b5f81519050919050565b7f4e487b71000000000000000000000000000000000000000000000000000000005f52602260045260245ffd5b5f600282049050600182168061022f57607f821691505b602082108103610242576102416101eb565b5b50919050565b5f819050815f5260205f209050919050565b5f6020601f8301049050919050565b5f82821b905092915050565b5f600883026102a47fffffffffffffffffffffffffffffffffffffffffffffffffffffffffffffffff82610269565b6102ae8683610269565b95508019841693508086168417925050509392505050565b5f819050919050565b5f819050919050565b5f6102f26102ed6102e8846102c6565b6102cf565b6102c6565b9050919050565b5f819050919050565b61030b836102d8565b61031f610317826102f9565b848454610275565b825550505050565b5f5f905090565b610336610327565b610341818484610302565b505050565b5b81811015610364576103595f8261032e565b600181019050610347565b5050565b601f8211156103a95761037a81610248565b6103838461025a565b81016020851015610392578190505b6103a661039e8561025a565b830182610346565b50505b505050565b5f82821c905092915050565b5f6103c95f19846008026103ae565b1980831691505092915050565b5f6103e183836103ba565b9150826002028217905092915050565b6103fa826101e1565b67ffffffffffffffff81111561041357610412610076565b5b61041d8254610218565b610428828285610368565b5f60209050601f831160018114610459575f8415610447578287015190505b61045185826103d6565b8655506104b8565b601f19841661046786610248565b5f5b8281101561048e57848901518255600182019150602085019450602081019050610469565b868310156104ab57848901516104a7601f8916826103ba565b8355505b6001600288020188555050505b505050505050565b610714806104cd5f395ff3fe608060405234801561000f575f5ffd5b506004361061004a575f3560e01c8063368b87721461004e5780635b34b9661461006a57806361bc221a14610074578063e21f37ce14610092575b5f5ffd5b610068600480360381019061006391906102ba565b6100b0565b005b6100726100c2565b005b61007c6100dc565b6040516100899190610319565b60405180910390f35b61009a6100e2565b6040516100a79190610392565b60405180910390f35b805f90816100be91906105af565b5050565b6001805f8282546100d391906106ab565b92505081905550565b60015481565b5f80546100ee906103df565b80601f016020809104026020016040519081016040528092919081815260200182805461011a906103df565b80156101655780601f1061013c57610100808354040283529160200191610165565b820191905f5260205f20905b81548152906001019060200180831161014857829003601f168201915b505050505081565b5f604051905090565b5f5ffd5b5f5ffd5b5f5ffd5b5f5ffd5b5f601f19601f8301169050919050565b7f4e487b71000000000000000000000000000000000000000000000000000000005f52604160045260245ffd5b6101cc82610186565b810181811067ffffffffffffffff821117156101eb576101ea610196565b5b80604052505050565b5f6101fd61016d565b905061020982826101c3565b919050565b5f67ffffffffffffffff82111561022857610227610196565b5b61023182610186565b9050602081019050919050565b828183375f83830152505050565b5f61025e6102598461020e565b6101f4565b90508281526020810184848401111561027a57610279610182565b5b61028584828561023e565b509392505050565b5f82601f8301126102a1576102a061017e565b5b81356102b184826020860161024c565b91505092915050565b5f602082840312156102cf576102ce610176565b5b5f82013567ffffffffffffffff8111156102ec576102eb61017a565b5b6102f88482850161028d565b91505092915050565b5f819050919050565b61031381610301565b82525050565b5f60208201905061032c5f83018461030a565b92915050565b5f81519050919050565b5f82825260208201905092915050565b8281835e5f83830152505050565b5f61036482610332565b61036e818561033c565b935061037e81856020860161034c565b61038781610186565b840191505092915050565b5f6020820190508181035f8301526103aa818461035a565b905092915050565b7f4e487b71000000000000000000000000000000000000000000000000000000005f52602260045260245ffd5b5f60028204905060018216806103f657607f821691505b602082108103610409576104086103b2565b5b50919050565b5f819050815f5260205f209050919050565b5f6020601f8301049050919050565b5f82821b905092915050565b5f6008830261046b7fffffffffffffffffffffffffffffffffffffffffffffffffffffffffffffffff82610430565b6104758683610430565b95508019841693508086168417925050509392505050565b5f819050919050565b5f6104b06104ab6104a684610301565b61048d565b610301565b9050919050565b5f819050919050565b6104c983610496565b6104dd6104d5826104b7565b84845461043c565b825550505050565b5f5f905090565b6104f46104e5565b6104ff8184846104c0565b505050565b5b81811015610522576105175f826104ec565b600181019050610505565b5050565b601f821115610567576105388161040f565b61054184610421565b81016020851015610550578190505b61056461055c85610421565b830182610504565b50505b505050565b5f82821c905092915050565b5f6105875f198460080261056c565b1980831691505092915050565b5f61059f8383610578565b9150826002028217905092915050565b6105b882610332565b67ffffffffffffffff8111156105d1576105d0610196565b5b6105db82546103df565b6105e6828285610526565b5f60209050601f831160018114610617575f8415610605578287015190505b61060f8582610594565b865550610676565b601f1984166106258661040f565b5f5b8281101561064c57848901518255600182019150602085019450602081019050610627565b868310156106695784890151610665601f891682610578565b8355505b6001600288020188555050505b505050505050565b7f4e487b71000000000000000000000000000000000000000000000000000000005f52601160045260245ffd5b5f6106b582610301565b91506106c083610301565b92508282019050808211156106d8576106d761067e565b5b9291505056fea26469706673582212204d9d406f4240a8d95e9c7585e123b9aae722e5c1e837f68b2b085680f853487d64736f6c634300081f0033",
					"opcodes": "PUSH1 0x80 PUSH1 0x40 MSTORE CALLVALUE DUP1 ISZERO PUSH2 0xF JUMPI PUSH0 PUSH0 REVERT JUMPDEST POP PUSH1 0x40 MLOAD PUSH2 0xBE1 CODESIZE SUB DUP1 PUSH2 0xBE1 DUP4 CODECOPY DUP2 DUP2 ADD PUSH1 0x40 MSTORE DUP2 ADD SWAP1 PUSH2 0x31 SWAP2 SWAP1 PUSH2 0x19A JUMP JUMPDEST DUP1 PUSH0 SWAP1 DUP2 PUSH2 0x3F SWAP2 SWAP1 PUSH2 0x3F1 JUMP JUMPDEST POP PUSH0 PUSH1 0x1 DUP2 SWAP1 SSTORE POP POP PUSH2 0x4C0 JUMP JUMPDEST PUSH0 PUSH1 0x40 MLOAD SWAP1 POP SWAP1 JUMP JUMPDEST PUSH0 PUSH0 REVERT JUMPDEST PUSH0 PUSH0 REVERT JUMPDEST PUSH0 PUSH0 REVERT JUMPDEST PUSH0 PUSH0 REVERT JUMPDEST PUSH0 PUSH1 0x1F NOT PUSH1 0x1F DUP4 ADD AND SWAP1 POP SWAP2 SWAP1 POP JUMP JUMPDEST PUSH32 0x4E487B7100000000000000000000000000000000000000000000000000000000 PUSH0 MSTORE PUSH1 0x41 PUSH1 0x4 MSTORE PUSH1 0x24 PUSH0 REVERT JUMPDEST PUSH2 0xAC DUP3 PUSH2 0x66 JUMP JUMPDEST DUP2 ADD DUP2 DUP2 LT PUSH8 0xFFFFFFFFFFFFFFFF DUP3 GT OR ISZERO PUSH2 0xCB JUMPI PUSH2 0xCA PUSH2 0x76 JUMP JUMPDEST JUMPDEST DUP1 PUSH1 0x40 MSTORE POP POP POP JUMP JUMPDEST PUSH0 PUSH2 0xDD PUSH2 0x4D JUMP JUMPDEST SWAP1 POP PUSH2 0xE9 DUP3 DUP3 PUSH2 0xA3 JUMP JUMPDEST SWAP2 SWAP1 POP JUMP JUMPDEST PUSH0 PUSH8 0xFFFFFFFFFFFFFFFF DUP3 GT ISZERO PUSH2 0x108 JUMPI PUSH2 0x107 PUSH2 0x76 JUMP JUMPDEST JUMPDEST PUSH2 0x111 DUP3 PUSH2 0x66 JUMP JUMPDEST SWAP1 POP PUSH1 0x20 DUP2 ADD SWAP1 POP SWAP2 SWAP1 POP JUMP JUMPDEST DUP3 DUP2 DUP4 MCOPY PUSH0 DUP4 DUP4 ADD MSTORE POP POP POP JUMP JUMPDEST PUSH0 PUSH2 0x13E PUSH2 0x139 DUP5 PUSH2 0xEE JUMP JUMPDEST PUSH2 0xD4 JUMP JUMPDEST SWAP1 POP DUP3 DUP2 MSTORE PUSH1 0x20 DUP2 ADD DUP5 DUP5 DUP5 ADD GT ISZERO PUSH2 0x15A JUMPI PUSH2 0x159 PUSH2 0x62 JUMP JUMPDEST JUMPDEST PUSH2 0x165 DUP5 DUP3 DUP6 PUSH2 0x11E JUMP JUMPDEST POP SWAP4 SWAP3 POP POP POP JUMP JUMPDEST PUSH0 DUP3 PUSH1 0x1F DUP4 ADD SLT PUSH2 0x181 JUMPI PUSH2 0x180 PUSH2 0x5E JUMP JUMPDEST JUMPDEST DUP2 MLOAD PUSH2 0x191 DUP5 DUP3 PUSH1 0x20 DUP7 ADD PUSH2 0x12C JUMP JUMPDEST SWAP2 POP POP SWAP3 SWAP2 POP POP JUMP JUMPDEST PUSH0 PUSH1 0x20 DUP3 DUP5 SUB SLT ISZERO PUSH2 0x1AF JUMPI PUSH2 0x1AE PUSH2 0x56 JUMP JUMPDEST JUMPDEST PUSH0 DUP3 ADD MLOAD PUSH8 0xFFFFFFFFFFFFFFFF DUP2 GT ISZERO PUSH2 0x1CC JUMPI PUSH2 0x1CB PUSH2 0x5A JUMP JUMPDEST JUMPDEST PUSH2 0x1D8 DUP5 DUP3 DUP6 ADD PUSH2 0x16D JUMP JUMPDEST SWAP2 POP POP SWAP3 SWAP2 POP POP JUMP JUMPDEST PUSH0 DUP2 MLOAD SWAP1 POP SWAP2 SWAP1 POP JUMP JUMPDEST PUSH32 0x4E487B7100000000000000000000000000000000000000000000000000000000 PUSH0 MSTORE PUSH1 0x22 PUSH1 0x4 MSTORE PUSH1 0x24 PUSH0 REVERT JUMPDEST PUSH0 PUSH1 0x2 DUP3 DIV SWAP1 POP PUSH1 0x1 DUP3 AND DUP1 PUSH2 0x22F JUMPI PUSH1 0x7F DUP3 AND SWAP2 POP JUMPDEST PUSH1 0x20 DUP3 LT DUP2 SUB PUSH2 0x242 JUMPI PUSH2 0x241 PUSH2 0x1EB JUMP JUMPDEST JUMPDEST POP SWAP2 SWAP1 POP JUMP JUMPDEST PUSH0 DUP2 SWAP1 POP DUP2 PUSH0 MSTORE PUSH1 0x20 PUSH0 KECCAK256 SWAP1 POP SWAP2 SWAP1 POP JUMP JUMPDEST PUSH0 PUSH1 0x20 PUSH1 0x1F DUP4 ADD DIV SWAP1 POP SWAP2 SWAP1 POP JUMP JUMPDEST PUSH0 DUP3 DUP3 SHL SWAP1 POP SWAP3 SWAP2 POP POP JUMP JUMPDEST PUSH0 PUSH1 0x8 DUP4 MUL PUSH2 0x2A4 PUSH32 0xFFFFFFFFFFFFFFFFFFFFFFFFFFFFFFFFFFFFFFFFFFFFFFFFFFFFFFFFFFFFFFFF DUP3 PUSH2 0x269 JUMP JUMPDEST PUSH2 0x2AE DUP7 DUP4 PUSH2 0x269 JUMP JUMPDEST SWAP6 POP DUP1 NOT DUP5 AND SWAP4 POP DUP1 DUP7 AND DUP5 OR SWAP3 POP POP POP SWAP4 SWAP3 POP POP POP JUMP JUMPDEST PUSH0 DUP2 SWAP1 POP SWAP2 SWAP1 POP JUMP JUMPDEST PUSH0 DUP2 SWAP1 POP SWAP2 SWAP1 POP JUMP JUMPDEST PUSH0 PUSH2 0x2F2 PUSH2 0x2ED PUSH2 0x2E8 DUP5 PUSH2 0x2C6 JUMP JUMPDEST PUSH2 0x2CF JUMP JUMPDEST PUSH2 0x2C6 JUMP JUMPDEST SWAP1 POP SWAP2 SWAP1 POP JUMP JUMPDEST PUSH0 DUP2 SWAP1 POP SWAP2 SWAP1 POP JUMP JUMPDEST PUSH2 0x30B DUP4 PUSH2 0x2D8 JUMP JUMPDEST PUSH2 0x31F PUSH2 0x317 DUP3 PUSH2 0x2F9 JUMP JUMPDEST DUP5 DUP5 SLOAD PUSH2 0x275 JUMP JUMPDEST DUP3 SSTORE POP POP POP POP JUMP JUMPDEST PUSH0 PUSH0 SWAP1 POP SWAP1 JUMP JUMPDEST PUSH2 0x336 PUSH2 0x327 JUMP JUMPDEST PUSH2 0x341 DUP2 DUP5 DUP5 PUSH2 0x302 JUMP JUMPDEST POP POP POP JUMP JUMPDEST JUMPDEST DUP2 DUP2 LT ISZERO PUSH2 0x364 JUMPI PUSH2 0x359 PUSH0 DUP3 PUSH2 0x32E JUMP JUMPDEST PUSH1 0x1 DUP2 ADD SWAP1 POP PUSH2 0x347 JUMP JUMPDEST POP POP JUMP JUMPDEST PUSH1 0x1F DUP3 GT ISZERO PUSH2 0x3A9 JUMPI PUSH2 0x37A DUP2 PUSH2 0x248 JUMP JUMPDEST PUSH2 0x383 DUP5 PUSH2 0x25A JUMP JUMPDEST DUP2 ADD PUSH1 0x20 DUP6 LT ISZERO PUSH2 0x392 JUMPI DUP2 SWAP1 POP JUMPDEST PUSH2 0x3A6 PUSH2 0x39E DUP6 PUSH2 0x25A JUMP JUMPDEST DUP4 ADD DUP3 PUSH2 0x346 JUMP JUMPDEST POP POP JUMPDEST POP POP POP JUMP JUMPDEST PUSH0 DUP3 DUP3 SHR SWAP1 POP SWAP3 SWAP2 POP POP JUMP JUMPDEST PUSH0 PUSH2 0x3C9 PUSH0 NOT DUP5 PUSH1 0x8 MUL PUSH2 0x3AE JUMP JUMPDEST NOT DUP1 DUP4 AND SWAP2 POP POP SWAP3 SWAP2 POP POP JUMP JUMPDEST PUSH0 PUSH2 0x3E1 DUP4 DUP4 PUSH2 0x3BA JUMP JUMPDEST SWAP2 POP DUP3 PUSH1 0x2 MUL DUP3 OR SWAP1 POP SWAP3 SWAP2 POP POP JUMP JUMPDEST PUSH2 0x3FA DUP3 PUSH2 0x1E1 JUMP JUMPDEST PUSH8 0xFFFFFFFFFFFFFFFF DUP2 GT ISZERO PUSH2 0x413 JUMPI PUSH2 0x412 PUSH2 0x76 JUMP JUMPDEST JUMPDEST PUSH2 0x41D DUP3 SLOAD PUSH2 0x218 JUMP JUMPDEST PUSH2 0x428 DUP3 DUP3 DUP6 PUSH2 0x368 JUMP JUMPDEST PUSH0 PUSH1 0x20 SWAP1 POP PUSH1 0x1F DUP4 GT PUSH1 0x1 DUP2 EQ PUSH2 0x459 JUMPI PUSH0 DUP5 ISZERO PUSH2 0x447 JUMPI DUP3 DUP8 ADD MLOAD SWAP1 POP JUMPDEST PUSH2 0x451 DUP6 DUP3 PUSH2 0x3D6 JUMP JUMPDEST DUP7 SSTORE POP PUSH2 0x4B8 JUMP JUMPDEST PUSH1 0x1F NOT DUP5 AND PUSH2 0x467 DUP7 PUSH2 0x248 JUMP JUMPDEST PUSH0 JUMPDEST DUP3 DUP2 LT ISZERO PUSH2 0x48E JUMPI DUP5 DUP10 ADD MLOAD DUP3 SSTORE PUSH1 0x1 DUP3 ADD SWAP2 POP PUSH1 0x20 DUP6 ADD SWAP5 POP PUSH1 0x20 DUP2 ADD SWAP1 POP PUSH2 0x469 JUMP JUMPDEST DUP7 DUP4 LT ISZERO PUSH2 0x4AB JUMPI DUP5 DUP10 ADD MLOAD PUSH2 0x4A7 PUSH1 0x1F DUP10 AND DUP3 PUSH2 0x3BA JUMP JUMPDEST DUP4 SSTORE POP JUMPDEST PUSH1 0x1 PUSH1 0x2 DUP9 MUL ADD DUP9 SSTORE POP POP POP JUMPDEST POP POP POP POP POP POP JUMP JUMPDEST PUSH2 0x714 DUP1 PUSH2 0x4CD PUSH0 CODECOPY PUSH0 RETURN INVALID PUSH1 0x80 PUSH1 0x40 MSTORE CALLVALUE DUP1 ISZERO PUSH2 0xF JUMPI PUSH0 PUSH0 REVERT JUMPDEST POP PUSH1 0x4 CALLDATASIZE LT PUSH2 0x4A JUMPI PUSH0 CALLDATALOAD PUSH1 0xE0 SHR DUP1 PUSH4 0x368B8772 EQ PUSH2 0x4E JUMPI DUP1 PUSH4 0x5B34B966 EQ PUSH2 0x6A JUMPI DUP1 PUSH4 0x61BC221A EQ PUSH2 0x74 JUMPI DUP1 PUSH4 0xE21F37CE EQ PUSH2 0x92 JUMPI JUMPDEST PUSH0 PUSH0 REVERT JUMPDEST PUSH2 0x68 PUSH1 0x4 DUP1 CALLDATASIZE SUB DUP2 ADD SWAP1 PUSH2 0x63 SWAP2 SWAP1 PUSH2 0x2BA JUMP JUMPDEST PUSH2 0xB0 JUMP JUMPDEST STOP JUMPDEST PUSH2 0x72 PUSH2 0xC2 JUMP JUMPDEST STOP JUMPDEST PUSH2 0x7C PUSH2 0xDC JUMP JUMPDEST PUSH1 0x40 MLOAD PUSH2 0x89 SWAP2 SWAP1 PUSH2 0x319 JUMP JUMPDEST PUSH1 0x40 MLOAD DUP1 SWAP2 SUB SWAP1 RETURN JUMPDEST PUSH2 0x9A PUSH2 0xE2 JUMP JUMPDEST PUSH1 0x40 MLOAD PUSH2 0xA7 SWAP2 SWAP1 PUSH2 0x392 JUMP JUMPDEST PUSH1 0x40 MLOAD DUP1 SWAP2 SUB SWAP1 RETURN JUMPDEST DUP1 PUSH0 SWAP1 DUP2 PUSH2 0xBE SWAP2 SWAP1 PUSH2 0x5AF JUMP JUMPDEST POP POP JUMP JUMPDEST PUSH1 0x1 DUP1 PUSH0 DUP3 DUP3 SLOAD PUSH2 0xD3 SWAP2 SWAP1 PUSH2 0x6AB JUMP JUMPDEST SWAP3 POP POP DUP2 SWAP1 SSTORE POP JUMP JUMPDEST PUSH1 0x1 SLOAD DUP2 JUMP JUMPDEST PUSH0 DUP1 SLOAD PUSH2 0xEE SWAP1 PUSH2 0x3DF JUMP JUMPDEST DUP1 PUSH1 0x1F ADD PUSH1 0x20 DUP1 SWAP2 DIV MUL PUSH1 0x20 ADD PUSH1 0x40 MLOAD SWAP1 DUP2 ADD PUSH1 0x40 MSTORE DUP1 SWAP3 SWAP2 SWAP1 DUP2 DUP2 MSTORE PUSH1 0x20 ADD DUP3 DUP1 SLOAD PUSH2 0x11A SWAP1 PUSH2 0x3DF JUMP JUMPDEST DUP1 ISZERO PUSH2 0x165 JUMPI DUP1 PUSH1 0x1F LT PUSH2 0x13C JUMPI PUSH2 0x100 DUP1 DUP4 SLOAD DIV MUL DUP4 MSTORE SWAP2 PUSH1 0x20 ADD SWAP2 PUSH2 0x165 JUMP JUMPDEST DUP3 ADD SWAP2 SWAP1 PUSH0 MSTORE PUSH1 0x20 PUSH0 KECCAK256 SWAP1 JUMPDEST DUP2 SLOAD DUP2 MSTORE SWAP1 PUSH1 0x1 ADD SWAP1 PUSH1 0x20 ADD DUP1 DUP4 GT PUSH2 0x148 JUMPI DUP3 SWAP1 SUB PUSH1 0x1F AND DUP3 ADD SWAP2 JUMPDEST POP POP POP POP POP DUP2 JUMP JUMPDEST PUSH0 PUSH1 0x40 MLOAD SWAP1 POP SWAP1 JUMP JUMPDEST PUSH0 PUSH0 REVERT JUMPDEST PUSH0 PUSH0 REVERT JUMPDEST PUSH0 PUSH0 REVERT JUMPDEST PUSH0 PUSH0 REVERT JUMPDEST PUSH0 PUSH1 0x1F NOT PUSH1 0x1F DUP4 ADD AND SWAP1 POP SWAP2 SWAP1 POP JUMP JUMPDEST PUSH32 0x4E487B7100000000000000000000000000000000000000000000000000000000 PUSH0 MSTORE PUSH1 0x41 PUSH1 0x4 MSTORE PUSH1 0x24 PUSH0 REVERT JUMPDEST PUSH2 0x1CC DUP3 PUSH2 0x186 JUMP JUMPDEST DUP2 ADD DUP2 DUP2 LT PUSH8 0xFFFFFFFFFFFFFFFF DUP3 GT OR ISZERO PUSH2 0x1EB JUMPI PUSH2 0x1EA PUSH2 0x196 JUMP JUMPDEST JUMPDEST DUP1 PUSH1 0x40 MSTORE POP POP POP JUMP JUMPDEST PUSH0 PUSH2 0x1FD PUSH2 0x16D JUMP JUMPDEST SWAP1 POP PUSH2 0x209 DUP3 DUP3 PUSH2 0x1C3 JUMP JUMPDEST SWAP2 SWAP1 POP JUMP JUMPDEST PUSH0 PUSH8 0xFFFFFFFFFFFFFFFF DUP3 GT ISZERO PUSH2 0x228 JUMPI PUSH2 0x227 PUSH2 0x196 JUMP JUMPDEST JUMPDEST PUSH2 0x231 DUP3 PUSH2 0x186 JUMP JUMPDEST SWAP1 POP PUSH1 0x20 DUP2 ADD SWAP1 POP SWAP2 SWAP1 POP JUMP JUMPDEST DUP3 DUP2 DUP4 CALLDATACOPY PUSH0 DUP4 DUP4 ADD MSTORE POP POP POP JUMP JUMPDEST PUSH0 PUSH2 0x25E PUSH2 0x259 DUP5 PUSH2 0x20E JUMP JUMPDEST PUSH2 0x1F4 JUMP JUMPDEST SWAP1 POP DUP3 DUP2 MSTORE PUSH1 0x20 DUP2 ADD DUP5 DUP5 DUP5 ADD GT ISZERO PUSH2 0x27A JUMPI PUSH2 0x279 PUSH2 0x182 JUMP JUMPDEST JUMPDEST PUSH2 0x285 DUP5 DUP3 DUP6 PUSH2 0x23E JUMP JUMPDEST POP SWAP4 SWAP3 POP POP POP JUMP JUMPDEST PUSH0 DUP3 PUSH1 0x1F DUP4 ADD SLT PUSH2 0x2A1 JUMPI PUSH2 0x2A0 PUSH2 0x17E JUMP JUMPDEST JUMPDEST DUP2 CALLDATALOAD PUSH2 0x2B1 DUP5 DUP3 PUSH1 0x20 DUP7 ADD PUSH2 0x24C JUMP JUMPDEST SWAP2 POP POP SWAP3 SWAP2 POP POP JUMP JUMPDEST PUSH0 PUSH1 0x20 DUP3 DUP5 SUB SLT ISZERO PUSH2 0x2CF JUMPI PUSH2 0x2CE PUSH2 0x176 JUMP JUMPDEST JUMPDEST PUSH0 DUP3 ADD CALLDATALOAD PUSH8 0xFFFFFFFFFFFFFFFF DUP2 GT ISZERO PUSH2 0x2EC JUMPI PUSH2 0x2EB PUSH2 0x17A JUMP JUMPDEST JUMPDEST PUSH2 0x2F8 DUP5 DUP3 DUP6 ADD PUSH2 0x28D JUMP JUMPDEST SWAP2 POP POP SWAP3 SWAP2 POP POP JUMP JUMPDEST PUSH0 DUP2 SWAP1 POP SWAP2 SWAP1 POP JUMP JUMPDEST PUSH2 0x313 DUP2 PUSH2 0x301 JUMP JUMPDEST DUP3 MSTORE POP POP JUMP JUMPDEST PUSH0 PUSH1 0x20 DUP3 ADD SWAP1 POP PUSH2 0x32C PUSH0 DUP4 ADD DUP5 PUSH2 0x30A JUMP JUMPDEST SWAP3 SWAP2 POP POP JUMP JUMPDEST PUSH0 DUP2 MLOAD SWAP1 POP SWAP2 SWAP1 POP JUMP JUMPDEST PUSH0 DUP3 DUP3 MSTORE PUSH1 0x20 DUP3 ADD SWAP1 POP SWAP3 SWAP2 POP POP JUMP JUMPDEST DUP3 DUP2 DUP4 MCOPY PUSH0 DUP4 DUP4 ADD MSTORE POP POP POP JUMP JUMPDEST PUSH0 PUSH2 0x364 DUP3 PUSH2 0x332 JUMP JUMPDEST PUSH2 0x36E DUP2 DUP6 PUSH2 0x33C JUMP JUMPDEST SWAP4 POP PUSH2 0x37E DUP2 DUP6 PUSH1 0x20 DUP7 ADD PUSH2 0x34C JUMP JUMPDEST PUSH2 0x387 DUP2 PUSH2 0x186 JUMP JUMPDEST DUP5 ADD SWAP2 POP POP SWAP3 SWAP2 POP POP JUMP JUMPDEST PUSH0 PUSH1 0x20 DUP3 ADD SWAP1 POP DUP2 DUP2 SUB PUSH0 DUP4 ADD MSTORE PUSH2 0x3AA DUP2 DUP5 PUSH2 0x35A JUMP JUMPDEST SWAP1 POP SWAP3 SWAP2 POP POP JUMP JUMPDEST PUSH32 0x4E487B7100000000000000000000000000000000000000000000000000000000 PUSH0 MSTORE PUSH1 0x22 PUSH1 0x4 MSTORE PUSH1 0x24 PUSH0 REVERT JUMPDEST PUSH0 PUSH1 0x2 DUP3 DIV SWAP1 POP PUSH1 0x1 DUP3 AND DUP1 PUSH2 0x3F6 JUMPI PUSH1 0x7F DUP3 AND SWAP2 POP JUMPDEST PUSH1 0x20 DUP3 LT DUP2 SUB PUSH2 0x409 JUMPI PUSH2 0x408 PUSH2 0x3B2 JUMP JUMPDEST JUMPDEST POP SWAP2 SWAP1 POP JUMP JUMPDEST PUSH0 DUP2 SWAP1 POP DUP2 PUSH0 MSTORE PUSH1 0x20 PUSH0 KECCAK256 SWAP1 POP SWAP2 SWAP1 POP JUMP JUMPDEST PUSH0 PUSH1 0x20 PUSH1 0x1F DUP4 ADD DIV SWAP1 POP SWAP2 SWAP1 POP JUMP JUMPDEST PUSH0 DUP3 DUP3 SHL SWAP1 POP SWAP3 SWAP2 POP POP JUMP JUMPDEST PUSH0 PUSH1 0x8 DUP4 MUL PUSH2 0x46B PUSH32 0xFFFFFFFFFFFFFFFFFFFFFFFFFFFFFFFFFFFFFFFFFFFFFFFFFFFFFFFFFFFFFFFF DUP3 PUSH2 0x430 JUMP JUMPDEST PUSH2 0x475 DUP7 DUP4 PUSH2 0x430 JUMP JUMPDEST SWAP6 POP DUP1 NOT DUP5 AND SWAP4 POP DUP1 DUP7 AND DUP5 OR SWAP3 POP POP POP SWAP4 SWAP3 POP POP POP JUMP JUMPDEST PUSH0 DUP2 SWAP1 POP SWAP2 SWAP1 POP JUMP JUMPDEST PUSH0 PUSH2 0x4B0 PUSH2 0x4AB PUSH2 0x4A6 DUP5 PUSH2 0x301 JUMP JUMPDEST PUSH2 0x48D JUMP JUMPDEST PUSH2 0x301 JUMP JUMPDEST SWAP1 POP SWAP2 SWAP1 POP JUMP JUMPDEST PUSH0 DUP2 SWAP1 POP SWAP2 SWAP1 POP JUMP JUMPDEST PUSH2 0x4C9 DUP4 PUSH2 0x496 JUMP JUMPDEST PUSH2 0x4DD PUSH2 0x4D5 DUP3 PUSH2 0x4B7 JUMP JUMPDEST DUP5 DUP5 SLOAD PUSH2 0x43C JUMP JUMPDEST DUP3 SSTORE POP POP POP POP JUMP JUMPDEST PUSH0 PUSH0 SWAP1 POP SWAP1 JUMP JUMPDEST PUSH2 0x4F4 PUSH2 0x4E5 JUMP JUMPDEST PUSH2 0x4FF DUP2 DUP5 DUP5 PUSH2 0x4C0 JUMP JUMPDEST POP POP POP JUMP JUMPDEST JUMPDEST DUP2 DUP2 LT ISZERO PUSH2 0x522 JUMPI PUSH2 0x517 PUSH0 DUP3 PUSH2 0x4EC JUMP JUMPDEST PUSH1 0x1 DUP2 ADD SWAP1 POP PUSH2 0x505 JUMP JUMPDEST POP POP JUMP JUMPDEST PUSH1 0x1F DUP3 GT ISZERO PUSH2 0x567 JUMPI PUSH2 0x538 DUP2 PUSH2 0x40F JUMP JUMPDEST PUSH2 0x541 DUP5 PUSH2 0x421 JUMP JUMPDEST DUP2 ADD PUSH1 0x20 DUP6 LT ISZERO PUSH2 0x550 JUMPI DUP2 SWAP1 POP JUMPDEST PUSH2 0x564 PUSH2 0x55C DUP6 PUSH2 0x421 JUMP JUMPDEST DUP4 ADD DUP3 PUSH2 0x504 JUMP JUMPDEST POP POP JUMPDEST POP POP POP JUMP JUMPDEST PUSH0 DUP3 DUP3 SHR SWAP1 POP SWAP3 SWAP2 POP POP JUMP JUMPDEST PUSH0 PUSH2 0x587 PUSH0 NOT DUP5 PUSH1 0x8 MUL PUSH2 0x56C JUMP JUMPDEST NOT DUP1 DUP4 AND SWAP2 POP POP SWAP3 SWAP2 POP POP JUMP JUMPDEST PUSH0 PUSH2 0x59F DUP4 DUP4 PUSH2 0x578 JUMP JUMPDEST SWAP2 POP DUP3 PUSH1 0x2 MUL DUP3 OR SWAP1 POP SWAP3 SWAP2 POP POP JUMP JUMPDEST PUSH2 0x5B8 DUP3 PUSH2 0x332 JUMP JUMPDEST PUSH8 0xFFFFFFFFFFFFFFFF DUP2 GT ISZERO PUSH2 0x5D1 JUMPI PUSH2 0x5D0 PUSH2 0x196 JUMP JUMPDEST JUMPDEST PUSH2 0x5DB DUP3 SLOAD PUSH2 0x3DF JUMP JUMPDEST PUSH2 0x5E6 DUP3 DUP3 DUP6 PUSH2 0x526 JUMP JUMPDEST PUSH0 PUSH1 0x20 SWAP1 POP PUSH1 0x1F DUP4 GT PUSH1 0x1 DUP2 EQ PUSH2 0x617 JUMPI PUSH0 DUP5 ISZERO PUSH2 0x605 JUMPI DUP3 DUP8 ADD MLOAD SWAP1 POP JUMPDEST PUSH2 0x60F DUP6 DUP3 PUSH2 0x594 JUMP JUMPDEST DUP7 SSTORE POP PUSH2 0x676 JUMP JUMPDEST PUSH1 0x1F NOT DUP5 AND PUSH2 0x625 DUP7 PUSH2 0x40F JUMP JUMPDEST PUSH0 JUMPDEST DUP3 DUP2 LT ISZERO PUSH2 0x64C JUMPI DUP5 DUP10 ADD MLOAD DUP3 SSTORE PUSH1 0x1 DUP3 ADD SWAP2 POP PUSH1 0x20 DUP6 ADD SWAP5 POP PUSH1 0x20 DUP2 ADD SWAP1 POP PUSH2 0x627 JUMP JUMPDEST DUP7 DUP4 LT ISZERO PUSH2 0x669 JUMPI DUP5 DUP10 ADD MLOAD PUSH2 0x665 PUSH1 0x1F DUP10 AND DUP3 PUSH2 0x578 JUMP JUMPDEST DUP4 SSTORE POP JUMPDEST PUSH1 0x1 PUSH1 0x2 DUP9 MUL ADD DUP9 SSTORE POP POP POP JUMPDEST POP POP POP POP POP POP JUMP JUMPDEST PUSH32 0x4E487B7100000000000000000000000000000000000000000000000000000000 PUSH0 MSTORE PUSH1 0x11 PUSH1 0x4 MSTORE PUSH1 0x24 PUSH0 REVERT JUMPDEST PUSH0 PUSH2 0x6B5 DUP3 PUSH2 0x301 JUMP JUMPDEST SWAP2 POP PUSH2 0x6C0 DUP4 PUSH2 0x301 JUMP JUMPDEST SWAP3 POP DUP3 DUP3 ADD SWAP1 POP DUP1 DUP3 GT ISZERO PUSH2 0x6D8 JUMPI PUSH2 0x6D7 PUSH2 0x67E JUMP JUMPDEST JUMPDEST SWAP3 SWAP2 POP POP JUMP INVALID LOG2 PUSH5 0x6970667358 0x22 SLT KECCAK256 0x4D SWAP14 BLOCKHASH PUSH16 0x4240A8D95E9C7585E123B9AAE722E5C1 0xE8 CALLDATACOPY 0xF6 DUP12 0x2B ADDMOD JUMP DUP1 EXTCALL MSTORE8 BASEFEE PUSH30 0x64736F6C634300081F003300000000000000000000000000000000000000 "
				},
				"gasEstimates": {
					"creation": {
						"codeDepositCost": "362400",
						"executionCost": "infinite",
						"totalCost": "infinite"
					},
					"external": {
						"counter()": "2447",
						"incrementCounter()": "infinite",
						"message()": "infinite",
						"setMessage(string)": "infinite"
					}
				},
				"methodIdentifiers": {
					"counter()": "61bc221a",
					"incrementCounter()": "5b34b966",
					"message()": "e21f37ce",
					"setMessage(string)": "368b8772"
				}
			},
			"storageLayout": {
				"storage": [
					{
						"astId": 3,
						"contract": "contracts/newContract.sol:MyContract",
						"label": "message",
						"offset": 0,
						"slot": "0",
						"type": "t_string_storage"
					},
					{
						"astId": 5,
						"contract": "contracts/newContract.sol:MyContract",
						"label": "counter",
						"offset": 0,
						"slot": "1",
						"type": "t_uint256"
					}
				],
				"types": {
					"t_string_storage": {
						"encoding": "bytes",
						"label": "string",
						"numberOfBytes": "32"
					},
					"t_uint256": {
						"encoding": "inplace",
						"label": "uint256",
						"numberOfBytes": "32"
					}
				}
			},
			"userdoc": {
				"kind": "user",
				"methods": {},
				"version": 1
			}
		}
	}
}